:020000040800F2
:1000000050040020010100082B0900082309000802
:1000100027090008B9010008671400080000000063
:10002000000000000000000000000000A90B000814
:10003000BD010008000000001D0A0008950C000822
:100040001B0100081B0100081B0100081B01000820
:100050001B0100081B0100081B0100081B01000810
:100060001B0100081B0100081B0100081B01000800
:100070001B0100081B0100081B0100081B010008F0
:100080001B0100081B0100081B0100081B010008E0
:100090001B0100081B0100081B0100081B010008D0
:1000A0001B0100081B0100081B0100081B010008C0
:1000B000F90C00081B0100081B0100081B010008C7
:1000C0001B0100081B0100081B0100081B010008A0
:1000D0001B010008B91000081B0100081B010008E3
:1000E000C10100081B0100081B010008DFF80CD04B
:1000F00000F018F800480047C11A0008500400201A
:100100000648804706480047FEE7FEE7FEE7FEE7B1
:10011000FEE7FEE7FEE7FEE7FEE7FEE7990C0008D4
:10012000ED000008064C074D06E0E06840F00103D2
:1001300094E8070098471034AC42F6D3FFF7DAFF93
:10014000D81C0008F81C00080EB54FF0804000F0E5
:100150004DFE0121084600F063FC4FF0804000F0A6
:1001600053FF2820ADF804000720ADF80000002060
:10017000ADF80600ADF8020069464FF0804000F08F
:1001800049FF0121880700F01FFE01221146900758
:1001900000F031FF00214FF0804000F009FE0EBD5D
:1001A000014908607047000088860D4201490860D7
:1001B0007047000000860D4200BFFEE77047000058
:1001C00010B54FF4005000F03BF830B30120134954
:1001D00008701348007818B901201149087002E02E
:1001E00000200F4908700E48007848B900200D49DA
:1001F00008700D4908700D4908700D49087008E035
:10020000FF20084908700849087008490870084923
:1002100008704FF4005000F00DF810BD15000020DC
:100220004D0000203F00002040000020440000203E
:100230004500002001490860704700001404014097
:10024000014600200022074B1B6803EA0102054B10
:1002500014331B680B4013B10AB1012000E00020E9
:100260007047000000040140002123498279002AE0
:100270003AD00A46126803689A430B461A600A1D70
:10028000126803689A430B1D1A60027911440A68C8
:1002900003681A430A60184A0832126803689A43CE
:1002A000154B08331A601A1D126803689A43124BE3
:1002B0000C331A604279102A0ED11A1F1268036893
:1002C0001A430D4B08331A601A1D126803681A434B
:1002D000094B0C331A600DE00749427911440A6852
:1002E00003681A430A6005E0027911440A6803684A
:1002F0009A430A6070470000000401400EB50121D6
:10030000052000F0ADFB00F011FB4FF40050ADF8FC
:10031000080004208DF80B0002A90B4800F072FAC7
:100320000D21002000F04EFA4FF400500090002004
:100330008DF8040010208DF8050001208DF80600CE
:100340006846FFF791FF0EBD000801400149C860F3
:10035000704700000020024030B5044604254FF4E9
:10036000302000F07DF80546042D17D10C480069B7
:1003700040F002000A49086108464461006940F003
:10038000400008614FF4302000F06AF80546044848
:10039000006941F6FD71084001490861284630BDF9
:1003A0000020024004200B49C96801F0010109B195
:1003B00001200EE00749C96801F0040109B10220DB
:1003C00007E00449C96801F0100109B1032000E009
:1003D00004207047002002400348006940F080007C
:1003E00001490861704700000020024070B50446D2
:1003F0000D460426F00200F033F80646042E11D113
:100400000948006940F00100074908612580F002B1
:1004100000F026F806460448006941F6FE710840DF
:1004200001490861304670BD0020024010B502222B
:1004300003E010F8013B01F8013B1300A2F10104B5
:10044000E2B2F6D110BD00000248034948600348FB
:10045000486070472301674500200240AB89EFCD1B
:1004600000B502460423FFF79DFF034603E0FFF7B4
:1004700099FF0346521E012B01D1002AF7D102B980
:100480000523184600BD70B506460C46FFF7DCFF95
:100490003520FFF75BFF3046FFF75EFF14F8015B86
:1004A00014F8011B45EA012529463046FFF79EFF57
:1004B000FFF792FF70BD000008B50121042000F095
:1004C000CFFA0121082000F0CBFA0121102000F022
:1004D000C7FA0121084600F0C3FA0120ADF8000078
:1004E00010208DF8030003208DF802006946B24801
:1004F00000F088F90220ADF8000010208DF803000C
:1005000003208DF802006946AB4800F07BF9042017
:10051000ADF8000010208DF8030003208DF80200D4
:100520006946A54800F06EF90820ADF800001020DB
:100530008DF8030003208DF8020069469E4800F004
:1005400061F91020ADF800008DF8030003208DF84C
:1005500002006946984800F055F92020ADF80000E7
:1005600010208DF8030003208DF8020069469248A0
:1005700000F048F94020ADF8000010208DF803008D
:1005800003208DF8020069468B4800F03BF980207B
:10059000ADF8000010208DF8030003208DF8020054
:1005A0006946854800F02EF90120ADF800001020C2
:1005B0008DF8030003208DF8020069467F4800F0A3
:1005C00021F90220ADF8000010208DF8030003206F
:1005D0008DF802006946794800F014F94FF4806004
:1005E000ADF8000010208DF8030003208DF8020004
:1005F0006946724800F006F94FF40060ADF800005B
:1006000010208DF8030003208DF8020069466B4826
:1006100000F0F8F82020ADF8000010208DF803005D
:1006200003208DF802006946644800F0EBF8402092
:10063000ADF8000010208DF8030003208DF80200B3
:1006400069465E4800F0DEF88020ADF8000010201A
:100650008DF8030003208DF802006946574800F02A
:10066000D1F84FF48070ADF8000010208DF8030031
:1006700003208DF802006946504800F0C3F84FF49B
:100680008050ADF8000010208DF8030003208DF895
:1006900002006946494800F0B5F84FF40050ADF843
:1006A000000010208DF8030003208DF80200694639
:1006B000424800F0A7F84FF48040ADF80000102049
:1006C0008DF8030003208DF8020069463B4800F0D6
:1006D00099F84FF40040ADF8000010208DF80300A9
:1006E00003208DF802006946344800F08BF84FF47F
:1006F0000070ADF8000010208DF8030003208DF885
:10070000020069462D4800F07DF84FF40050ADF826
:10071000000010208DF8030002208DF802006946C9
:10072000274800F06FF84FF48040ADF8000010202B
:100730008DF8030002208DF802006946204800F081
:1007400061F84FF40040ADF8000010208DF8030070
:1007500002208DF802006946194800F053F8012084
:1007600000F056F9002000F005FA0020FFF71EFD0A
:100770000020FFF715FD002000F04AF94FF400605B
:10078000ADF8000010208DF8030003208DF8020062
:100790006946094800F036F84FF48050ADF8000083
:1007A00010208DF8030003208DF8020069460248EE
:1007B00000F028F808BD000000080140000C0140CE
:1007C0000010014030B500228B071C0F0F2303FAE5
:1007D00004F20B4B8C1053F824309343084C8D10CB
:1007E00044F8253023468C1053F824308C07240F0E
:1007F00000FA04F42343024C8D1044F8253030BD38
:10080000080001402DE9F0410246002500260020A5
:1008100000230024002791F803C00CF00F0591F885
:1008200003C00CF0100CBCF1000F03D091F802C013
:100830004CEA050591F800C0BCF1000F31D01468F6
:1008400000202BE04FF0010C0CFA00F3B1F800C0CF
:100850000CEA03069E4220D183004FF00F0C0CFAE5
:1008600003F7BC4305FA03FC4CEA040491F803C007
:10087000BCF1280F06D14FF0010C0CFA00FCC2F8B5
:1008800014C00AE091F803C0BCF1480F05D14FF045
:10089000010C0CFA00FCC2F810C0401C0828D1D38F
:1008A0001460B1F800C0BCF1FF0F34DD54680020C3
:1008B0002EE000F1080C4FF0010808FA0CF3B1F833
:1008C00000C00CEA03069E4221D183004FF00F0CBA
:1008D0000CFA03F7BC4305FA03FC4CEA040491F854
:1008E00003C0BCF1280F05D100F1080C08FA0CF880
:1008F000C2F8148091F803C0BCF1480F07D100F191
:10090000080C4FF0010808FA0CF8C2F81080401CDF
:100910000828CED35460BDE8F08141617047016181
:10092000704700BFFEE700BFFEE7704708B54FF411
:10093000A06000F063F825208DF8000001208DF8FC
:10094000010000208DF8020001208DF803006846A8
:1009500000F01CF81C208DF8000000208DF801002C
:100960008DF8020001208DF80300684600F00EF8B3
:1009700028208DF8000001208DF801008DF802007C
:100980008DF80300684600F001F808BD70B500213D
:1009900000230F22C47804B3154C246804F4E064E7
:1009A000C4F5E064210AC1F10403CA40447804FAA2
:1009B00003F184781440214309010E4C0678A155B7
:1009C000047804F01F050124AC4005786D11AD00DA
:1009D00005F1E025C5F8004109E0047804F01F05A1
:1009E0000124AC40044D0678761145F8264070BDD0
:1009F0000CED00E000E400E080E100E0024901438A
:100A0000024A1160704700000000FA050CED00E09A
:100A1000014908627047000000000E427047000064
:100A200029B1064AD2690243044BDA6104E0034A61
:100A3000D2698243014BDA61704700000010024026
:100A400029B1064A12690243044B1A6104E0034AC1
:100A500012698243014B1A61704700000010024086
:100A600029B1064A92690243044B9A6104E0034AA1
:100A700092698243014B9A61704700000010024066
:100A800029B1064AD2680243044BDA6004E0034A03
:100A9000D2688243014BDA607047000000100240C8
:100AA00030B500210022002400232D4D6D6805F093
:100AB0000C0121B1042905D0082923D105E0294DD5
:100AC000056022E0274D05601FE0254D6D6805F4A7
:100AD0007012234D6D6805F48034022505EB9242B7
:100AE0001CB9214D554305600BE01D4D6D6805F4A3
:100AF00000351DB11C4D5543056002E0194D5543AD
:100B0000056002E0174D056000BF00BF144D6D6821
:100B100005F0F0010909154D6B5C0568DD40456085
:100B20000F4D6D6805F4E061090A104D6B5C456876
:100B3000DD4085600A4D6D6805F46051C90A0B4DB2
:100B40006B5C4568DD40C560054D6D6805F440414E
:100B5000890B074D6B5CC568B5FBF3F5056130BDCE
:100B60000010024000127A0000093D000000002041
:100B70001000002000210B4A11700A4A203A82F826
:100B80002010012802D0042808D103E00121054AE1
:100B9000117004E00521034A117000E000BF00BF9E
:100BA0007047000020100240704710B500F002F8B6
:100BB00010BD00000CB50020019000903348006883
:100BC00040F480303149086000BF3048006800F4CC
:100BD000003000900198401C0190009818B90198CD
:100BE000B0F5A06FF1D12948006800F4003010B1D1
:100BF0000120009001E0002000900098012843D1DE
:100C00002348006840F01000214908600846006849
:100C100020F0030008600846006840F00200086009
:100C20001A484068194948600846406848600846C4
:100C3000406840F4806048600846406820F47C10BA
:100C400048600846406840F4E8104860084600687C
:100C500040F08070086000BF0C48006800F0007031
:100C60000028F9D00948406820F00300074948608F
:100C70000846406840F00200486000BF03484068F2
:100C800000F00C000828F9D10CBD00000010024053
:100C9000002002407047000010B51348006840F083
:100CA00001001149086008464068104908400E4993
:100CB0004860084600680E4908400B49086008462D
:100CC000006820F4802008600846406820F4FE0098
:100CD00048604FF41F008860FFF767FF4FF0006027
:100CE0000449086010BD0000001002400000FFF839
:100CF000FFFFF6FE08ED00E010B50121880700F0C7
:100D000069F9002849D025480078401C234908701B
:100D100008460078042804D181022148FFF7FFFD2E
:100D200037E01E480078032809D10121880700F028
:100D300051F84FF400611A48FFF7F1FD29E0174818
:100D4000007818490978884223D100214FF080406B
:100D500000F040F80020114908704FF4006110487D
:100D6000FFF7DDFD00F02AFF00F028FF00F026FF6E
:100D70004FF480510A48FFF7D0FD0B480078401C23
:100D800009490870012009490870C1020448FFF7A9
:100D9000C4FD0121880700F01AF810BD46000020AC
:100DA00000080140480000204700002018000020F3
:100DB00021B1028842F08002028004E002884FF6EE
:100DC0007F731A4002807047CA4302827047CA4349
:100DD0000282704721B1028842F00102028004E0E1
:100DE00002884FF6FE731A400280704710B5044621
:100DF0006848844208D10121C014FFF741FE002158
:100E0000E014FFF73DFEC4E0B4F1804F08D10121AA
:100E10000846FFF715FE00210120FFF711FEB8E09C
:100E20005D48844208D101210220FFF709FE00211C
:100E30000220FFF705FEACE05848844208D10121AA
:100E40000420FFF7FDFD00210420FFF7F9FDA0E0DD
:100E50005348844208D101210820FFF7F1FD002109
:100E60000820FFF7EDFD94E04E48844208D10121AF
:100E70001020FFF7E5FD00211020FFF7E1FD88E0DD
:100E80004948844208D101212020FFF7D9FD0021E3
:100E90002020FFF7D5FD7CE04448844208D10121A1
:100EA0004014FFF7EDFD00216014FFF7E9FD70E04D
:100EB0003F48844209D10121C804FFF7E1FD002128
:100EC0004FF40020FFF7DCFD63E03A48844209D18B
:100ED00001210805FFF7D4FD00214FF48010FFF732
:100EE000CFFD56E03448844209D101214805FFF77F
:100EF000C7FD00214FF40010FFF7C2FD49E02F4865
:100F0000844208D101214020FFF79AFD00214020B2
:100F1000FFF796FD3DE02A48844208D10121802058
:100F2000FFF78EFD00218020FFF78AFD31E0254884
:100F3000844208D101218015FFF782FD0021A01510
:100F4000FFF77EFD25E02048844209D101210804F5
:100F5000FFF796FD00214FF48030FFF791FD18E078
:100F60001A48844209D101214804FFF789FD002174
:100F70004FF40030FFF784FD0BE01548844208D1A0
:100F800001218804FFF77CFD00214FF48020FFF74A
:100F900077FD10BD002C0140000400400008004017
:100FA000000C0040001000400014004000340140DC
:100FB000004C014000500140005401400018004026
:100FC000001C00400020004000400140004401405F
:100FD0000048014030B50246002000230024158A55
:100FE00005EA0103958905EA010413B10CB101205A
:100FF00000E0002030BD1AB183890B43838102E0F9
:1010000083898B438381704701894FF6F8721140C1
:1010100001817047002202881D4B98420ED01D4B63
:1010200098420BD0B0F1804F08D01B4B984205D0AE
:101030001A4B984202D01A4B984204D14FF68F7344
:101040001A404B881A43174B984207D0164B9842C8
:1010500004D04FF6FF431A40CB881A4302808B8896
:1010600083850B8803850A4B98420BD0094B984225
:1010700008D00E4B984205D00D4B984202D00D4B34
:10108000984201D10B7A03860123838270470000C6
:10109000002C0140003401400004004000080040E2
:1010A000000C0040001000400014004000400140CF
:1010B000004401400048014010B540F225514A4823
:1010C00000F00DF9002811D0474800F0C3F9C4B270
:1010D0004648007878B946480470012043490870B2
:1010E0004348007818B90120424908707BE000208D
:1010F0004049087077E03D480078012805D13E4816
:1011000004700220394908706DE0384800780228E0
:1011100005D13A48047003203449087063E033482D
:101120000078032805D13648047004202F49087040
:1011300059E02E480078042855D1552C0FD12D4860
:10114000007860B101202F49087000202E490870F6
:101150002E4908702E4908702449087043E0AA2CD3
:1011600018D124480078A8B1002026490870012031
:1011700025490870002025490870254908701B4939
:1011800008701D480078234908701C4800782249DF
:10119000087028E0BB2C10D11648007868B10020F8
:1011A0001849087018490870012018490870002073
:1011B000174908700D49087015E0EE2C10D10D4844
:1011C000007868B100200F4908700F4908700F4976
:1011D000087001200E49087000200449087002E0E0
:1011E00000200249087010BD003801403D00002079
:1011F0003E000020490000203F0000204000002069
:1012000048000020140000201500002016000020D7
:1012100017000020440000204500002021B18289F1
:1012200042F40052828104E082894DF6FF731A4035
:101230008281704700B585B001210420FFF710FCC2
:1012400001218803FFF70CFC4FF40070ADF810008B
:1012500018208DF8130003208DF8120004A91748F8
:10126000FFF7D0FA4FF48060ADF8100004208DF83D
:10127000130004A91148FFF7C5FA4FF4E1300090BC
:101280000020ADF80400ADF80600ADF80800ADF898
:101290000C000C20ADF80A006946094800F06EF811
:1012A000FFF744FB012240F22551054800F041F8C8
:1012B00001210348FFF7B2FF05B000BD000801405F
:1012C0000038014002460020B1F5007F00D100BF88
:1012D00013880B400BB1012000E00020704770B56F
:1012E0000246002400230025002040F66A16B14281
:1012F00000D100BFC1F3421501F01F03012606FA19
:1013000003F3012D02D19689334006E0022D02D16C
:10131000168A334001E0968A33400C12012606FA01
:1013200004F41688344013B10CB1012000E0002011
:1013300070BDF0B50346002400260025002040F6CD
:101340006A17B94200D100BF1846C1F3421401F038
:101350001F06012707FA06F5012C01D10C3004E025
:10136000022C01D1103000E014301AB107682F436D
:10137000076002E00768AF430760F0BD2DE9F04762
:1013800086B005460E460024A24600BFA1460027AF
:10139000B08900B100BF2F462C8A4CF6FF70044084
:1013A000F08804432C82AC894EF6F3100440B088D8
:1013B00031890843718908430443AC81AC8A4FF6F4
:1013C000FF400440B0890443AC8201A8FFF768FBEA
:1013D0001F48874202D1DDF810A001E0DDF80CA023
:1013E000A88900F4004040B10AEBCA0000EB0A10E3
:1013F00031684900B0FBF1F807E00AEBCA0000EBE6
:101400000A1031688900B0FBF1F86420B8FBF0F0F5
:1014100004012009642101FB1089A88900F400401F
:1014200040B1322000EBC900B0FBF1F000F0070042
:10143000044308E0322000EB09106421B0FBF1F016
:1014400000F00F0004432C8106B0BDE8F0870000D7
:101450000038014001468888C0F308007047C1F396
:1014600008028280704700BFFEE770B504460D4653
:1014700029462046FFF7F3FF00BF80212046FFF7F3
:1014800021FF0028F9D070BD02E008C8121F08C172
:10149000002AFAD170477047002001E001C1121FF5
:1014A000002AFBD17047000010B5FE4800780128E3
:1014B00074D1FD48007800F0800018B90020FB4985
:1014C000087002E00120F9490870F748007800F040
:1014D000400018B90020F649087002E00120F449E4
:1014E0000870F148007800F0200018B90020F14998
:1014F000087002E00120EF490870EB48007800F026
:10150000100018B90020EC49087002E00120EA49F7
:101510000870E548007800F0080018B90020E74995
:10152000087002E00120E5490870DF48007800F00B
:10153000040018B90020E249087002E00120E049E7
:101540000870D948007800F0020018B90020DD4981
:10155000087002E00120DB490870D348007800F0F1
:10156000010018B90020D849087002E00120D649CE
:101570000870D648007800F0080018B90020D44957
:10158000087002E00120D2490870D048007800F0CD
:10159000040020B90020CF49087003E012E20120C6
:1015A000CC490870C948007800F0020018B9002042
:1015B000C949087002E00120C7490870C348007893
:1015C00000F0010018B90020C449087002E00120B1
:1015D000C2490870B548007880B14FF40041C04856
:1015E000FFF79DF94FF48041BD48FFF796F90120C0
:1015F000BC4908700020BC4908700FE04FF400415E
:10160000B748FFF78AF94FF48041B548FFF787F9EB
:101610000020B44908700120B3490870A44800783C
:1016200080B14FF40051AE48FFF779F94FF40071E3
:10163000AE48FFF772F90120AD4908700020AD49AE
:1016400008700FE04FF40051A548FFF766F94FF41A
:101650000071A648FFF763F90020A5490870012032
:10166000A44908709348007880B14FF400419F4826
:10167000FFF755F94FF480419C48FFF74EF90120E0
:101680009D49087000209D4908700FE04FF400410B
:101690009648FFF742F94FF480419448FFF73FF92D
:1016A000002095490870012094490870824800780C
:1016B00080B14FF400518D48FFF731F94FF480515C
:1016C0008A48FFF72AF901208D49087000208D49CA
:1016D00008700FE04FF400518448FFF71EF94FF4F3
:1016E00080518248FFF71BF90020854908700120CE
:1016F000844908707148007878B14FF480717B4854
:10170000FFF70DF980217948FFF707F901207E499D
:10171000087000207D4908700EE04FF48071734816
:10172000FFF7FBF880217148FFF7F9F800207649B0
:1017300008700120754908706148007870B1402137
:101740006A48FFF7ECF820216848FFF7E6F8012027
:101750006F49087000206F4908700DE04021634810
:10176000FFF7DBF820216148FFF7D9F8002068492E
:1017700008700120674908705248007880B14FF422
:1017800000615A48FFF7CBF84FF480615748FFF7E4
:10179000C4F80120604908700020604908700FE01B
:1017A0004FF400615148FFF7B8F84FF480614F489B
:1017B000FFF7B5F800205849087001205749087014
:1017C0004148007870B102214848FFF7A8F801218C
:1017D0004648FFF7A2F801205149087000205149FE
:1017E00008700DE002214148FFF797F801213F48BA
:1017F000FFF795F800204A49087001204949087010
:101800003348007870B180214748FFF788F84021BD
:101810004548FFF782F801204449087000204449F8
:1018200008700DE080214048FFF777F840213E48DE
:10183000FFF775F800203D49087001203C49087009
:101840002448007870B120213748FFF768F810214C
:101850003548FFF762F80120364908700020364904
:1018600008700DE020213048FFF757F810212E486E
:10187000FFF755F800202F49087001202E49087005
:101880001548007860B108212748FFF748F804217F
:101890002548FFF742F801202849087000204FE052
:1018A00051E00000180000203F0000203C00002014
:1018B0003B0000203A0000203900002038000020C2
:1018C00037000020360000203500002040000020B6
:1018D00034000020330000203200002031000020BE
:1018E000001001403000002024000020000C0140C6
:1018F0002F000020230000202E00002022000020C6
:101900002D000020210000202C00002020000020BD
:101910002B0000201F0000202A0000201E000020B5
:10192000290000201D0000200008014028000020A0
:101930001C000020270000201B00002026000020A3
:10194000224908700DE008212148FEF7E6FF042136
:101950001F48FEF7E4FF00201E49087001201B49C4
:1019600008701D48007870B102211948FEF7D7FFB2
:1019700001211748FEF7D1FF012018490870002007
:10198000174908700DE002211148FEF7C6FF01213A
:101990000F48FEF7C4FF00201049087001201049CD
:1019A00008704FF400610A48FEF7B9FF012188076B
:1019B000FFF710FA00200B4908704FF480510448DB
:1019C000FEF7ABFF00200849087010BD1A00002088
:1019D00000080140260000203100002025000020E2
:1019E00019000020180000201500002010B5FEF797
:1019F00063FDFEF7A9FBFFF71DFCFEF77FFC4FF42C
:101A000000611D48FEF789FF4FF480511A48FEF728
:101A100084FF002019490870194908701949087095
:101A200019490870012019490870002018490870E8
:101A30001849087018490870184908700520184995
:101A4000087018491848FEF7F1FC16480078174945
:101A500008701448407816490870FFF725FD1348B0
:101A60000078144908701248007813490870002063
:101A70001249087010BD0000000801401500002048
:101A8000140000201600002017000020180000207D
:101A9000470000203D0000204900002046000020B3
:101AA000480000204A000020008000083F0000207D
:101AB0004000002044000020450000204D00002090
:101AC000FFF794FF5EE030480078012802D1FFF76D
:101AD000EBFC57E02D480078012802D100F0E2F835
:101AE00050E02B480078012822D1002029490870B5
:101AF0002948007829490870294800782949087040
:101B0000244801782848FFF7B0FC2448017826488B
:101B1000FFF7ABFC234801782348FFF7A6FC2348D6
:101B200001782148FFF7A1FC00201949087029E03D
:101B30001F480078012825D10020164908701D494A
:101B40001D48FEF773FC1B480078144908701948BB
:101B50004078144908700F4801781348FFF785FC56
:101B60000E4801781048FFF780FC0E4801780E48B7
:101B7000FFF77BFC0D4801780B48FFF776FC00204F
:101B80000B4908709FE7000015000020140000209A
:101B900016000020410000204400002042000020E8
:101BA000450000204300002000380140470000208D
:101BB000170000204A0000200080000810B5012115
:101BC0003548FEF7ACFE04213348FEF7A8FE10218D
:101BD0003148FEF7A4FE40212F48FEF7A0FE012168
:101BE0002E48FEF79CFE4FF480612C48FEF797FECE
:101BF00020212A48FEF793FE80212848FEF78FFE19
:101C00004FF480512548FEF78AFE4FF48041234867
:101C1000FEF785FE4FF400712048FEF780FE4FF47A
:101C200080411F48FEF77BFE02211B48FEF777FE2E
:101C300008211948FEF773FE20211748FEF76FFEB2
:101C400080211548FEF76BFE02211448FEF767FE5F
:101C50004FF400611148FEF762FE40210F48FEF785
:101C60005EFE4FF480710D48FEF759FE4FF40051AF
:101C70000A48FEF754FE4FF400410848FEF74FFEB5
:101C80004FF400510648FEF74AFE4FF40041044865
:101C9000FEF745FE10BD000000080140000C0140A9
:101CA0000010014010B50748007807490870074840
:101CB000007848700648FEF7E6FB002005490870EA
:101CC00010BD00003F0000204A000020400000201E
:101CD0000080000814000020F81C0008000000200C
:101CE0005000000088140008481D00085000002023
:101CF0000004000098140008000000000102030422
:101D00000102030406070809020406080000000097
:101D100000000000000000000000000000000000C3
:101D200000000000000000000000000000000000B3
:101D300000000000000000000000000000000000A3
:081D400000000000000000009B
:04000005080000ED02
:00000001FF
