:020000040800F2
:100000005004002001010008270700081F0700080E
:1000100023070008B90100080F12000800000000C3
:100020000000000000000000000000008909000836
:10003000BD01000800000000FD070008750A000867
:100040001B0100081B0100081B0100081B01000820
:100050001B0100081B0100081B0100081B01000810
:100060001B0100081B0100081B0100081B01000800
:100070001B0100081B0100081B0100081B010008F0
:100080001B0100081B0100081B0100081B010008E0
:100090001B0100081B0100081B0100081B010008D0
:1000A0001B0100081B0100081B0100081B010008C0
:1000B000D90A00081B0100081B0100081B010008E9
:1000C0001B0100081B0100081B0100081B010008A0
:1000D0001B010008610E00081B0100081B0100083D
:1000E0001B0100081B0100081B010008DFF80CD0F1
:1000F00000F018F8004800471518000850040020C8
:100100000648804706480047FEE7FEE7FEE7FEE7B1
:10011000FEE7FEE7FEE7FEE7FEE7FEE7790A0008F6
:10012000ED000008064C074D06E0E06840F00103D2
:1001300094E8070098471034AC42F6D3FFF7DAFF93
:10014000181A0008381A00080EB54FF0804000F069
:1001500021FD0121084600F053FB4FF0804000F0E4
:1001600027FE2520ADF804000720ADF80000002090
:10017000ADF80600ADF8020069464FF0804000F08F
:100180001DFE0121880700F0F3FC012211469007B3
:1001900000F005FE00214FF0804000F0DDFC0EBDB8
:1001A000014908607047000088860D4201490860D7
:1001B0007047000000860D4200BFFEE77047000058
:1001C0000149C860704700000020024030B5044675
:1001D00004254FF4302000F07DF80546042D17D19A
:1001E0000C48006940F002000A4908610846446171
:1001F000006940F0400008614FF4302000F06AF8D8
:1002000005460448006941F6FD710840014908614E
:10021000284630BD0020024004200B49C96801F087
:10022000010109B101200EE00749C96801F004018C
:1002300009B1022007E00449C96801F0100109B1C1
:10024000032000E0042070470020024003480069BA
:1002500040F0800001490861704700000020024022
:1002600070B504460D460426F00200F033F8064649
:10027000042E11D10948006940F0010007490861C6
:100280002580F00200F026F806460448006941F691
:10029000FE71084001490861304670BD00200240EF
:1002A00010B5022203E010F8013B01F8013B1300F6
:1002B000A2F10104E2B2F6D110BD000002480349E8
:1002C00048600348486070472301674500200240AA
:1002D000AB89EFCD00B502460423FFF79DFF03462F
:1002E00003E0FFF799FF0346521E012B01D1002ABC
:1002F000F7D102B90523184600BD70B506460C4675
:10030000FFF7DCFF3520FFF75BFF3046FFF75EFFAE
:1003100014F8015B14F8011B45EA01252946304613
:10032000FFF79EFFFFF792FF70BD000008B50121A7
:10033000042000F085FA0121082000F081FA012153
:10034000102000F07DFA0121084600F079FA012022
:10035000ADF8000010208DF8030003208DF8020096
:100360006946A44800F04CF90220ADF800001020C6
:100370008DF8030003208DF8020069469D4800F0C7
:100380003FF90420ADF8000010208DF80300032091
:100390008DF802006946974800F032F90820ADF860
:1003A000000010208DF8030003208DF8020069463C
:1003B000904800F025F91020ADF800008DF80300FA
:1003C00003208DF8020069468A4800F019F92020C0
:1003D000ADF8000010208DF8030003208DF8020016
:1003E0006946844800F00CF94020ADF80000102068
:1003F0008DF8030003208DF8020069467D4800F067
:10040000FFF88020ADF8000010208DF803000320D5
:100410008DF802006946774800F0F2F80120ADF847
:10042000000010208DF8030003208DF802006946BB
:10043000714800F0E5F80220ADF8000010208DF8BA
:10044000030003208DF8020069466B4800F0D8F8DD
:100450002020ADF8000010208DF8030003208DF857
:1004600002006946644800F0CBF84020ADF8000077
:1004700010208DF8030003208DF8020069465E48C5
:1004800000F0BEF88020ADF8000010208DF80300C9
:1004900003208DF802006946574800F0B1F84FF488
:1004A0008070ADF8000010208DF8030003208DF857
:1004B00002006946504800F0A3F84FF48050ADF8B0
:1004C000000010208DF8030003208DF8020069461B
:1004D000494800F095F84FF40050ADF800001020A6
:1004E0008DF8030003208DF802006946424800F0B1
:1004F00087F84FF48040ADF8000010208DF803001D
:1005000003208DF8020069463B4800F079F84FF46B
:100510000040ADF8000010208DF8030003208DF896
:1005200002006946344800F06BF84FF40070ADF8F3
:10053000000010208DF8030003208DF802006946AA
:100540002D4800F05DF84FF40050ADF80000102089
:100550008DF8030002208DF802006946274800F05C
:100560004FF84FF48040ADF8000010208DF80300E4
:1005700002208DF802006946204800F041F84FF44F
:100580000040ADF8000010208DF8030002208DF827
:1005900002006946194800F033F8012000F028F9FC
:1005A000002000F0D7F90020FFF700FE0020FFF741
:1005B000F7FD002000F01CF94FF40060ADF80000DA
:1005C00010208DF8030003208DF8020069460948C9
:1005D00000F016F84FF48050ADF8000010208DF8B0
:1005E000030003208DF802006946024800F008F875
:1005F00008BD000000080140000C0140001001404F
:100600002DE9F041024600250026002000230024A9
:10061000002791F803C00CF00F0591F803C00CF00F
:10062000100CBCF1000F03D091F802C04CEA050594
:1006300091F800C0BCF1000F31D0146800202BE00D
:100640004FF0010C0CFA00F3B1F800C00CEA0306FD
:100650009E4220D183004FF00F0C0CFA03F7BC43ED
:1006600005FA03FC4CEA040491F803C0BCF1280F1E
:1006700006D14FF0010C0CFA00FCC2F814C00AE0DD
:1006800091F803C0BCF1480F05D14FF0010C0CFAF2
:1006900000FCC2F810C0401C0828D1D31460B1F887
:1006A00000C0BCF1FF0F34DD546800202EE000F1E3
:1006B000080C4FF0010808FA0CF3B1F800C00CEA7E
:1006C00003069E4221D183004FF00F0C0CFA03F772
:1006D000BC4305FA03FC4CEA040491F803C0BCF1E6
:1006E000280F05D100F1080C08FA0CF8C2F81480A4
:1006F00091F803C0BCF1480F07D100F1080C4FF08E
:10070000010808FA0CF8C2F81080401C0828CED363
:100710005460BDE8F081416170470161704700BFDE
:10072000FEE700BFFEE7704708B54FF4A06000F099
:1007300055F825208DF8000001208DF801008DF876
:1007400002008DF80300684600F010F81C208DF8B8
:10075000000000208DF801008DF8020001208DF8C6
:100760000300684600F002F808BD000070B50021E3
:1007700000230F22C47804B3154C246804F4E06409
:10078000C4F5E064210AC1F10403CA40447804FAC4
:1007900003F184781440214309010E4C0678A155D9
:1007A000047804F01F050124AC4005786D11AD00FC
:1007B00005F1E025C5F8004109E0047804F01F05C3
:1007C0000124AC40044D0678761145F8264070BDF2
:1007D0000CED00E000E400E080E100E002490143AC
:1007E000024A1160704700000000FA050CED00E0BD
:1007F000014908627047000000000E427047000087
:1008000029B1064AD2690243044BDA6104E0034A83
:10081000D2698243014BDA61704700000010024048
:1008200029B1064A12690243044B1A6104E0034AE3
:1008300012698243014B1A617047000000100240A8
:1008400029B1064A92690243044B9A6104E0034AC3
:1008500092698243014B9A61704700000010024088
:1008600029B1064AD2680243044BDA6004E0034A25
:10087000D2688243014BDA607047000000100240EA
:1008800030B500210022002400232D4D6D6805F0B5
:100890000C0121B1042905D0082923D105E0294DF7
:1008A000056022E0274D05601FE0254D6D6805F4C9
:1008B0007012234D6D6805F48034022505EB9242D9
:1008C0001CB9214D554305600BE01D4D6D6805F4C5
:1008D00000351DB11C4D5543056002E0194D5543CF
:1008E000056002E0174D056000BF00BF144D6D6844
:1008F00005F0F0010909154D6B5C0568DD404560A8
:100900000F4D6D6805F4E061090A104D6B5C456898
:10091000DD4085600A4D6D6805F46051C90A0B4DD4
:100920006B5C4568DD40C560054D6D6805F4404170
:10093000890B074D6B5CC568B5FBF3F5056130BDF0
:100940000010024000127A0000093D000000002063
:100950001000002000210B4A11700A4A203A82F848
:100960002010012802D0042808D103E00121054A03
:10097000117004E00521034A117000E000BF00BFC0
:100980007047000020100240704710B500F002F8D8
:1009900010BD00000CB500200190009033480068A5
:1009A00040F480303149086000BF3048006800F4EE
:1009B000003000900198401C0190009818B90198EF
:1009C000B0F5A06FF1D12948006800F4003010B1F3
:1009D0000120009001E0002000900098012843D100
:1009E0002348006840F0100021490860084600686C
:1009F00020F0030008600846006840F0020008602C
:100A00001A484068194948600846406848600846E6
:100A1000406840F4806048600846406820F47C10DC
:100A200048600846406840F4E8104860084600689E
:100A300040F08070086000BF0C48006800F0007053
:100A40000028F9D00948406820F0030007494860B1
:100A50000846406840F00200486000BF0348406814
:100A600000F00C000828F9D10CBD00000010024075
:100A7000002002407047000010B51348006840F0A5
:100A800001001149086008464068104908400E49B5
:100A90004860084600680E4908400B49086008464F
:100AA000006820F4802008600846406820F4FE00BA
:100AB00048604FF41F008860FFF767FF4FF0006049
:100AC0000449086010BD0000001002400000FFF85B
:100AD000FFFFF6FE08ED00E010B50121880700F0E9
:100AE0004DF970B317480078401C16490870084645
:100AF0000078042804D181021348FFF70EFE1CE0A1
:100B00001048007811490978884216D14FF4805175
:100B10000D48FFF700FE00F0FBFE00214FF0804083
:100B200000F02CF800200749087009480078401CA4
:100B3000074908700120074908700121880700F063
:100B40001AF810BD460000200008014048000020AF
:100B5000470000201800002021B1028842F08002E6
:100B6000028004E002884FF67F731A4002807047CB
:100B7000CA4302827047CA430282704721B1028889
:100B800042F00102028004E002884FF6FE731A4030
:100B90000280704710B504466848844208D101219C
:100BA000C014FFF75DFE0021E014FFF759FEC4E01A
:100BB000B4F1804F08D101210846FFF731FE002132
:100BC0000120FFF72DFEB8E05D48844208D10121E5
:100BD0000220FFF725FE00210220FFF721FEACE0F6
:100BE0005848844208D101210420FFF719FE002152
:100BF0000420FFF715FEA0E05348844208D10121EC
:100C00000820FFF70DFE00210820FFF709FE94E001
:100C10004E48844208D101211020FFF701FE002137
:100C20001020FFF7FDFD88E04948844208D10121EA
:100C30002020FFF7F5FD00212020FFF7F1FD7CE0EB
:100C40004448844208D101214014FFF709FE0021E5
:100C50006014FFF705FE70E03F48844209D101218E
:100C6000C804FFF7FDFD00214FF40020FFF7F8FD59
:100C700063E03A48844209D101210805FFF7F0FDFD
:100C800000214FF48010FFF7EBFD56E0344884421A
:100C900009D101214805FFF7E3FD00214FF40010C1
:100CA000FFF7DEFD49E02F48844208D101214020B2
:100CB000FFF7B6FD00214020FFF7B2FD3DE02A48D6
:100CC000844208D101218020FFF7AAFD0021802065
:100CD000FFF7A6FD31E02548844208D101218015A7
:100CE000FFF79EFD0021A015FFF79AFD25E02048A3
:100CF000844209D101210804FFF7B2FD00214FF41D
:100D00008030FFF7ADFD18E01A48844209D1012177
:100D10004804FFF7A5FD00214FF40030FFF7A0FDC8
:100D20000BE01548844208D101218804FFF798FDA3
:100D300000214FF48020FFF793FD10BD002C0140EF
:100D40000004004000080040000C0040001000407B
:100D50000014004000340140004C014000500140AC
:100D60000054014000180040001C004000200040DA
:100D700000400140004401400048014030B50246B7
:100D8000002000230024158A05EA0103958905EA5D
:100D9000010413B10CB1012000E0002030BD1AB1F4
:100DA00083890B43838102E083898B43838170476E
:100DB00001894FF6F87211400181704700220288C4
:100DC0001D4B98420ED01D4B98420BD0B0F1804F76
:100DD00008D01B4B984205D01A4B984202D01A4BB0
:100DE000984204D14FF68F731A404B881A43174B21
:100DF000984207D0164B984204D04FF6FF431A4052
:100E0000CB881A4302808B8883850B8803850A4B25
:100E100098420BD0094B984208D00E4B984205D00F
:100E20000D4B984202D00D4B984201D10B7A0386AC
:100E30000123838270470000002C014000340140F0
:100E40000004004000080040000C0040001000407A
:100E500000140040004001400044014000480140AF
:100E600010B540F225514A4800F00DF9002811D084
:100E7000474800F0C3F9C4B24648007878B94648FC
:100E800004700120434908704348007818B90120D4
:100E9000424908707BE000204049087077E03D48F7
:100EA0000078012805D13E480470022039490870B5
:100EB0006DE038480078022805D13A4804700320D4
:100EC0003449087063E033480078032805D1364878
:100ED000047004202F49087059E02E480078042837
:100EE00055D1552C0FD12D48007860B101202F49E4
:100EF000087000202E4908702E4908702E4908708D
:100F00002449087043E0AA2C18D124480078A8B1DD
:100F10000020264908700120254908700020254935
:100F20000870254908701B4908701D48007823493E
:100F300008701C4800782249087028E0BB2C10D1AA
:100F40001648007868B100201849087018490870E0
:100F50000120184908700020174908700D490870D1
:100F600015E0EE2C10D10D48007868B100200F4933
:100F700008700F4908700F49087001200E49087069
:100F800000200449087002E000200249087010BDEA
:100F9000003801403D0000203E00002049000020B4
:100FA0003F000020400000204800002014000020E6
:100FB000150000201600002017000020440000202B
:100FC0004500002021B1828942F40052828104E070
:100FD00082894DF6FF731A408281704700B585B053
:100FE00001210420FFF72CFC01218803FFF728FCD6
:100FF0004FF40070ADF8100018208DF81300032096
:101000008DF8120004A91748FFF7FAFA4FF4806030
:10101000ADF8100004208DF8130004A91148FFF763
:10102000EFFA4FF4E13000900020ADF80400ADF885
:101030000600ADF80800ADF80C000C20ADF80A0071
:101040006946094800F06EF8FFF76EFB012240F296
:101050002551054800F041F801210348FFF7B2FF90
:1010600005B000BD000801400038014002460020E4
:10107000B1F5007F00D100BF13880B400BB10120F8
:1010800000E00020704770B50246002400230025D0
:10109000002040F66A16B14200D100BFC1F34215EC
:1010A00001F01F03012606FA03F3012D02D19689F0
:1010B000334006E0022D02D1168A334001E0968AC1
:1010C00033400C12012606FA04F41688344013B19A
:1010D0000CB1012000E0002070BDF0B503460024F3
:1010E00000260025002040F66A17B94200D100BF53
:1010F0001846C1F3421401F01F06012707FA06F54E
:10110000012C01D10C3004E0022C01D1103000E0A0
:1011100014301AB107682F43076002E00768AF4335
:101120000760F0BD2DE9F04786B005460E46002465
:10113000A24600BFA1460027B08900B100BF2F46DC
:101140002C8A4CF6FF700440F08804432C82AC8952
:101150004EF6F3100440B088318908437189084382
:101160000443AC81AC8A4FF6FF400440B08904438D
:10117000AC8201A8FFF784FB1F48874202D1DDF84B
:1011800010A001E0DDF80CA0A88900F4004040B1F7
:101190000AEBCA0000EB0A1031684900B0FBF1F815
:1011A00007E00AEBCA0000EB0A1031688900B0FBC7
:1011B000F1F86420B8FBF0F004012009642101FB80
:1011C0001089A88900F4004040B1322000EBC9002A
:1011D000B0FBF1F000F00700044308E0322000EB20
:1011E00009106421B0FBF1F000F00F0004432C81E2
:1011F00006B0BDE8F087000000380140014688884D
:10120000C0F308007047C1F308028280704700BF36
:10121000FEE770B504460D4629462046FFF7F3FF6A
:1012200000BF80212046FFF721FF0028F9D070BDC4
:1012300002E008C8121F08C1002AFAD1704770479F
:10124000002001E001C1121F002AFBD170470000FD
:1012500010B5FD480078012874D1FC48007800F0F2
:10126000800018B90020FA49087002E00120F8490E
:101270000870F648007800F0400018B90020F549E1
:10128000087002E00120F3490870F048007800F08F
:10129000200018B90020F049087002E00120EE4952
:1012A0000870EA48007800F0100018B90020EB49F7
:1012B000087002E00120E9490870E448007800F075
:1012C000080018B90020E649087002E00120E4494E
:1012D0000870DE48007800F0040018B90020E149E9
:1012E000087002E00120DF490870D848007800F05B
:1012F000020018B90020DC49087002E00120DA4938
:101300000870D248007800F0010018B90020D749D1
:10131000087002E00120D5490870D548007800F037
:10132000080018B90020D349087002E00120D14913
:101330000870CF48007800F0040020B90020CE49A2
:10134000087003E0EFE10120CB490870C84800783D
:1013500000F0020018B90020C849087002E001201E
:10136000C6490870C248007800F0010018B9002092
:10137000C349087002E00120C1490870B4480078F0
:1013800080B14FF40041BF48FFF7C7F94FF48041E7
:10139000BC48FFF7C0F90120BB4908700020BB49D9
:1013A00008700FE04FF40041B648FFF7B4F94FF46E
:1013B0008041B448FFF7B1F90020B349087001201B
:1013C000B2490870A348007880B14FF40051AD488D
:1013D000FFF7A3F94FF40071AD48FFF79CF9012026
:1013E000AC4908700020AC4908700FE04FF4005180
:1013F000A448FFF790F94FF40071A548FFF78DF965
:101400000020A44908700120A34908709248007880
:1014100080B14FF400419E48FFF77FF94FF48041BF
:101420009B48FFF778F901209C49087000209C49EF
:1014300008700FE04FF400419548FFF76CF94FF446
:1014400080419348FFF769F9002094490870012012
:10145000934908708148007880B14FF400518C485E
:10146000FFF75BF94FF480518948FFF754F90120E9
:101470008C49087000208C4908700FE04FF400512F
:101480008348FFF748F94FF480518148FFF745F949
:101490000020844908700120834908707048007852
:1014A00078B14FF480717A48FFF737F98021784896
:1014B000FFF731F901207D49087000207C49087050
:1014C0000EE04FF480717248FFF725F980217048D3
:1014D000FFF723F90020754908700120744908704E
:1014E0006048007870B140216948FFF716F9202163
:1014F0006748FFF710F901206E49087000206E4917
:1015000008700DE040216248FFF705F9202160488E
:10151000FFF703F900206749087001206649087049
:101520005248007870B102215948FFF7F6F80121BE
:101530005748FFF7F0F80120604908700020604923
:1015400008700DE002215248FFF7E5F801215048EC
:10155000FFF7E3F800205949087001205849087046
:101560004448007870B180215648FFF7D6F84021F2
:101570005448FFF7D0F80120534908700020534920
:1015800008700DE080214F48FFF7C5F840214D4815
:10159000FFF7C3F800204C49087001204B49087040
:1015A0003548007870B120214648FFF7B6F8102181
:1015B0004448FFF7B0F8012045490870002045492C
:1015C00008700DE020213F48FFF7A5F810213D48A5
:1015D000FFF7A3F800203E49087001203D4908703C
:1015E0002648007870B108213648FFF796F80421A4
:1015F0003448FFF790F80120374908700020374938
:1016000008700DE008212F48FFF785F804212D48C8
:10161000FFF783F800203049087001202F49087037
:101620001748007870B102212648FFF776F80121AB
:101630002448FFF770F80120294908700020294943
:1016400008705FE050E00000180000203F0000201C
:101650003C0000203B0000203A0000203900002020
:101660003800002037000020360000203500002020
:101670004000002034000020330000203200002011
:101680003100002000100140300000202400002024
:10169000000C01402F000020230000202E0000201D
:1016A000220000202D000020210000202C0000201E
:1016B000200000202B0000201F0000202900002017
:1016C0001D00002000080140280000201C00002010
:1016D000270000201B000020260000201A00002008
:1016E000250000201900002002211148FFF713F8FF
:1016F00001210F48FFF711F800200E490870012062
:101700000D4908704FF400610948FFF706F8012100
:101710008807FFF733FA0020084908704FF480511A
:101720000348FEF7F8FF00200549087010BD0000CF
:1017300000080140250000201900002018000020AA
:101740001500002010B5FEF7F1FDFEF7FDFCFFF7D8
:1017500045FC4FF400611D48FEF7DDFF4FF480515A
:101760001A48FEF7D8FF0020194908701949087077
:10177000194908701949087001201949087000209A
:1017800018490870184908701849087018490870F5
:101790000C201849087018491848FEF781FD1648B2
:1017A0000078174908701448407816490870FFF708
:1017B0004FFD134800781449087012480078134907
:1017C000087000201249087010BD00000008014098
:1017D0001500002014000020160000201700002033
:1017E00018000020470000203D0000204900002094
:1017F00046000020480000204A0000200080000829
:101800003F00002040000020440000204500002050
:101810004D000020FFF796FF5EE030480078012879
:1018200002D1FFF715FD57E02D480078012802D1BD
:1018300000F0D8F850E02B480078012822D1002091
:1018400029490870294800782949087029480078F2
:1018500029490870244801782848FFF7DAFC244811
:1018600001782648FFF7D5FC234801782348FFF785
:10187000D0FC234801782148FFF7CBFC0020194910
:10188000087029E01F480078012825D1002016495A
:1018900008701D491D48FEF703FD1B4800781449D8
:1018A000087019484078144908700F4801781348A7
:1018B000FFF7AFFC0E4801781048FFF7AAFC0E486E
:1018C00001780E48FFF7A5FC0D4801780B48FFF79B
:1018D000A0FC00200B4908709FE7000015000020C5
:1018E00014000020160000204100002044000020C9
:1018F0004200002045000020430000200038014045
:1019000047000020170000204A0000200080000847
:1019100010B501213048FEF700FF04212E48FEF7E4
:10192000FCFE10212C48FEF7F8FE40212A48FEF765
:10193000F4FE01212948FEF7F0FE80212748FEF73A
:10194000ECFE4FF480512548FEF7E7FE4FF480414E
:101950002248FEF7E2FE4FF400712048FEF7DDFE5C
:101960004FF480411E48FEF7D8FE02211A48FEF7C8
:10197000D4FE08211848FEF7D0FE20211648FEF7B5
:10198000CCFE80211448FEF7C8FE02211348FEF762
:10199000C4FE4FF400611148FEF7BFFE40210F481E
:1019A000FEF7BBFE4FF480710C48FEF7B6FE4FF415
:1019B00000510A48FEF7B1FE4FF400410748FEF718
:1019C000ACFE4FF400510648FEF7A7FE4FF400416D
:1019D0000348FEF7A2FE10BD00080140000C0140C4
:1019E0000010014010B50748007807490870074803
:1019F000007848700648FEF780FC00200549087012
:101A000010BD00003F0000204A00002040000020E0
:101A10000080000814000020381A00080000002090
:101A20005000000030120008881A00085000002002
:101A3000000400004012000800000000010203043E
:101A4000010203040607080902040608000000005A
:101A50000000000000000000000000000000000086
:101A60000000000000000000000000000000000076
:101A70000000000000000000000000000000000066
:081A800000000000000000005E
:04000005080000ED02
:00000001FF
