:020000040800F2
:100000005004002001010008D3050008CB050008BA
:10001000CF050008B90100089B100008000000008F
:10002000000000000000000000000000350800088B
:10003000BD01000800000000A90600082109000811
:100040001B0100081B0100081B0100081B01000820
:100050001B0100081B0100081B0100081B01000810
:100060001B0100081B0100081B0100081B01000800
:100070001B0100081B0100081B0100081B010008F0
:100080001B0100081B0100081B0100081B010008E0
:100090001B0100081B0100081B0100081B010008D0
:1000A0001B0100081B0100081B0100081B010008C0
:1000B000850900081B0100081B0100081B0100083E
:1000C0001B0100081B0100081B0100081B010008A0
:1000D0001B0100080D0D00081B0100081B01000892
:1000E0001B0100081B0100081B010008DFF80CD0F1
:1000F00000F018F800480047A9110008500400203B
:100100000648804706480047FEE7FEE7FEE7FEE7B1
:10011000FEE7FEE7FEE7FEE7FEE7FEE7250900084B
:10012000ED000008064C074D06E0E06840F00103D2
:1001300094E8070098471034AC42F6D3FFF7DAFF93
:1001400070130008901300080EB54FF0804000F0C7
:1001500077FC0121084600F0A9FA4FF0804000F03A
:100160007DFDC820ADF804000720ADF80000002098
:10017000ADF80600ADF8020069464FF0804000F08F
:1001800073FD0121880700F049FC01221146900708
:1001900000F05BFD00214FF0804000F033FC0EBD0D
:1001A000014908607047000088860D4201490860D7
:1001B0007047000000860D4200BFFEE7704710B593
:1001C000022203E010F8013B01F8013B1300A2F109
:1001D0000104E2B2F6D110BD08B50121042000F0FF
:1001E00085FA0121082000F081FA0121102000F099
:1001F0007DFA0121084600F079FA0120ADF80000EF
:1002000010208DF8030003208DF802006946A448F1
:1002100000F04CF90220ADF8000010208DF803002A
:1002200003208DF8020069469D4800F03FF9042044
:10023000ADF8000010208DF8030003208DF80200B7
:100240006946974800F032F90820ADF80000102008
:100250008DF8030003208DF802006946904800F0F5
:1002600025F91020ADF800008DF8030003208DF86B
:10027000020069468A4800F019F92020ADF8000014
:1002800010208DF8030003208DF802006946844891
:1002900000F00CF94020ADF8000010208DF80300AC
:1002A00003208DF8020069467D4800F0FFF88020A9
:1002B000ADF8000010208DF8030003208DF8020037
:1002C0006946774800F0F2F80120ADF800001020F0
:1002D0008DF8030003208DF802006946714800F094
:1002E000E5F80220ADF8000010208DF8030003208F
:1002F0008DF8020069466B4800F0D8F82020ADF870
:10030000000010208DF8030003208DF802006946DC
:10031000644800F0CBF84020ADF8000010208DF8C4
:10032000030003208DF8020069465E4800F0BEF825
:100330008020ADF8000010208DF8030003208DF818
:1003400002006946574800F0B1F84FF48070ADF8EC
:10035000000010208DF8030003208DF8020069468C
:10036000504800F0A3F84FF48050ADF80000102082
:100370008DF8030003208DF802006946494800F01B
:1003800095F84FF40050ADF8000010208DF80300F0
:1003900003208DF802006946424800F087F84FF4C8
:1003A0008040ADF8000010208DF8030003208DF888
:1003B000020069463B4800F079F84FF40040ADF880
:1003C000000010208DF8030003208DF8020069461C
:1003D000344800F06BF84FF40070ADF800001020C6
:1003E0008DF8030003208DF8020069462D4800F0C7
:1003F0005DF84FF40050ADF8000010208DF80300B8
:1004000002208DF802006946274800F04FF84FF4AB
:100410008040ADF8000010208DF8030002208DF818
:1004200002006946204800F041F84FF40040ADF862
:10043000000010208DF8030002208DF802006946AC
:10044000194800F033F8012000F028F9002000F0EE
:10045000D7F90020FFF7AAFE0020FFF7A1FE002039
:1004600000F01CF94FF40060ADF8000010208DF88A
:10047000030003208DF802006946094800F016F8D1
:100480004FF48050ADF8000010208DF803000320D9
:100490008DF802006946024800F008F808BD000027
:1004A00000080140000C0140001001402DE9F0411E
:1004B000024600250026002000230024002791F892
:1004C00003C00CF00F0591F803C00CF0100CBCF148
:1004D000000F03D091F802C04CEA050591F800C066
:1004E000BCF1000F31D0146800202BE04FF0010C5C
:1004F0000CFA00F3B1F800C00CEA03069E4220D1CA
:1005000083004FF00F0C0CFA03F7BC4305FA03FC11
:100510004CEA040491F803C0BCF1280F06D14FF057
:10052000010C0CFA00FCC2F814C00AE091F803C0F8
:10053000BCF1480F05D14FF0010C0CFA00FCC2F8D9
:1005400010C0401C0828D1D31460B1F800C0BCF121
:10055000FF0F34DD546800202EE000F1080C4FF04E
:10056000010808FA0CF3B1F800C00CEA03069E4239
:1005700021D183004FF00F0C0CFA03F7BC4305FAAE
:1005800003FC4CEA040491F803C0BCF1280F05D128
:1005900000F1080C08FA0CF8C2F8148091F803C0B6
:1005A000BCF1480F07D100F1080C4FF0010808FA20
:1005B0000CF8C2F81080401C0828CED35460BDE867
:1005C000F081416170470161704700BFFEE700BFE5
:1005D000FEE7704708B54FF4A06000F055F82520FD
:1005E0008DF8000001208DF801008DF802008DF8D3
:1005F0000300684600F010F81C208DF80000002071
:100600008DF801008DF8020001208DF80300684686
:1006100000F002F808BD000070B5002100230F2291
:10062000C47804B3154C246804F4E064C4F5E064B1
:10063000210AC1F10403CA40447804FA03F1847822
:100640001440214309010E4C0678A155047804F0AA
:100650001F050124AC4005786D11AD0005F1E025C2
:10066000C5F8004109E0047804F01F050124AC40FE
:10067000044D0678761145F8264070BD0CED00E07B
:1006800000E400E080E100E002490143024A116019
:10069000704700000000FA050CED00E00149086217
:1006A0007047000000000E427047000029B1064A62
:1006B000D2690243044BDA6104E0034AD2698243FF
:1006C000014BDA61704700000010024029B1064A70
:1006D00012690243044B1A6104E0034A126982431F
:1006E000014B1A61704700000010024029B1064A10
:1006F00092690243044B9A6104E0034A926982437F
:10070000014B9A61704700000010024029B1064A6F
:10071000D2680243044BDA6004E0034AD2688243A1
:10072000014BDA60704700000010024030B5002134
:100730000022002400232D4D6D6805F00C0121B12D
:10074000042905D0082923D105E0294D056022E0C0
:10075000274D05601FE0254D6D6805F47012234D8F
:100760006D6805F48034022505EB92421CB9214DD9
:10077000554305600BE01D4D6D6805F400351DB156
:100780001C4D5543056002E0194D5543056002E0DC
:10079000174D056000BF00BF144D6D6805F0F001F6
:1007A0000909154D6B5C0568DD4045600F4D6D68AE
:1007B00005F4E061090A104D6B5C4568DD40856019
:1007C0000A4D6D6805F46051C90A0B4D6B5C4568B4
:1007D000DD40C560054D6D6805F44041890B074D4E
:1007E0006B5CC568B5FBF3F5056130BD00100240D8
:1007F00000127A0000093D000000002010000020D7
:1008000000210B4A11700A4A203A82F82010012870
:1008100002D0042808D103E00121054A117004E048
:100820000521034A117000E000BF00BF70470000BF
:1008300020100240704710B500F002F810BD000013
:100840000CB50020019000903348006840F48030DF
:100850003149086000BF3048006800F40030009063
:100860000198401C0190009818B90198B0F5A06F4C
:10087000F1D12948006800F4003010B10120009047
:1008800001E0002000900098012843D1234800682F
:1008900040F01000214908600846006820F003007D
:1008A00008600846006840F0020008601A48406886
:1008B000194948600846406848600846406840F466
:1008C000806048600846406820F47C104860084614
:1008D000406840F4E81048600846006840F08070C6
:1008E000086000BF0C48006800F000700028F9D0D4
:1008F0000948406820F003000749486008464068FE
:1009000040F00200486000BF0348406800F00C005F
:100910000828F9D10CBD0000001002400020024060
:100920007047000010B51348006840F001001149FD
:10093000086008464068104908400E49486008466B
:1009400000680E4908400B4908600846006820F41A
:10095000802008600846406820F4FE0048604FF49C
:100960001F008860FFF767FF4FF0006004490860D0
:1009700010BD0000001002400000FFF8FFFFF6FE6F
:1009800008ED00E010B50121880700F04DF980B3B3
:1009900018480078E0B94FF400611748FFF713FEDC
:1009A0004FF400411548FFF70CFE4FF48041134807
:1009B000FFF709FE4FF400511048FFF704FE4FF413
:1009C00000710F48FFF7FDFD01200A4908700CE097
:1009D00008480078012808D1C1020748FFF7F1FD57
:1009E00000F05CFC0020034908700121880700F03A
:1009F00018F810BD4F000020000801400010014011
:100A0000000C014021B1028842F08002028004E023
:100A100002884FF67F731A4002807047CA430282F1
:100A20007047CA430282704721B1028842F0010236
:100A3000028004E002884FF6FE731A40028070477D
:100A400010B504466848844208D10121C014FFF75C
:100A50005DFE0021E014FFF759FEC4E0B4F1804FC1
:100A600008D101210846FFF731FE00210120FFF7E0
:100A70002DFEB8E05D48844208D101210220FFF735
:100A800025FE00210220FFF721FEACE058488442F9
:100A900008D101210420FFF719FE00210420FFF7EF
:100AA00015FEA0E05348844208D101210820FFF739
:100AB0000DFE00210820FFF709FE94E04E48844215
:100AC00008D101211020FFF701FE00211020FFF7BF
:100AD000FDFD88E04948844208D101212020FFF72C
:100AE000F5FD00212020FFF7F1FD7CE04448844221
:100AF00008D101214014FFF709FE00216014FFF71F
:100B000005FE70E03F48844209D10121C804FFF787
:100B1000FDFD00214FF40020FFF7F8FD63E03A48A7
:100B2000844209D101210805FFF7F0FD00214FF4AF
:100B30008010FFF7EBFD56E03448844209D10121D3
:100B40004805FFF7E3FD00214FF40010FFF7DEFD3D
:100B500049E02F48844208D101214020FFF7B6FD2B
:100B600000214020FFF7B2FD3DE02A48844208D131
:100B700001218020FFF7AAFD00218020FFF7A6FDBC
:100B800031E02548844208D101218015FFF79EFD00
:100B90000021A015FFF79AFD25E02048844209D1E5
:100BA00001210804FFF7B2FD00214FF48030FFF768
:100BB000ADFD18E01A48844209D101214804FFF72D
:100BC000A5FD00214FF40030FFF7A0FD0BE0154814
:100BD000844208D101218804FFF798FD00214FF4D9
:100BE0008020FFF793FD10BD002C01400004004061
:100BF00000080040000C00400010004000140040BD
:100C000000340140004C01400050014000540140BC
:100C100000180040001C004000200040004001403F
:100C2000004401400048014030B502460020002346
:100C30000024158A05EA0103958905EA010413B128
:100C40000CB1012000E0002030BD1AB183890B43B4
:100C5000838102E083898B438381704701894FF64A
:100C6000F872114001817047002202881D4B9842A2
:100C70000ED01D4B98420BD0B0F1804F08D01B4BCB
:100C8000984205D01A4B984202D01A4B984204D190
:100C90004FF68F731A404B881A43174B984207D070
:100CA000164B984204D04FF6FF431A40CB881A43A4
:100CB00002808B8883850B8803850A4B98420BD072
:100CC000094B984208D00E4B984205D00D4B9842E4
:100CD00002D00D4B984201D10B7A03860123838207
:100CE00070470000002C0140003401400004004027
:100CF00000080040000C00400010004000140040BC
:100D000000400140004401400048014010B540F25D
:100D100025514A4800F000F9002811D0474800F05A
:100D2000B7F9C4B24648007878B946480470012043
:100D3000434908704348007818B9012042490870B7
:100D40007BE000204049087077E03D4800780128AA
:100D500005D13E4804700220394908706DE03848DA
:100D60000078022805D13A480470032034490870FD
:100D700063E033480078032805D136480470042026
:100D80002F49087059E02E480078042855D1552C79
:100D90000FD12D48007860B101202F490870002044
:100DA0002E4908702E4908702E4908702449087091
:100DB00043E0AA2C18D124480078A8B10020264985
:100DC0000870012025490870002025490870254930
:100DD00008701B4908701D480078234908701C489A
:100DE00000782249087028E0BB2C10D11648007802
:100DF00068B1002018490870184908700120184986
:100E000008700020174908700D49087015E0EE2C95
:100E100010D10D48007868B100200F4908700F49C3
:100E200008700F49087001200E490870002004491D
:100E3000087002E000200249087010BD003801402F
:100E40003D0000203E000020490000203F0000201F
:100E50004000002048000020140000201500002061
:100E6000160000201700002044000020450000204C
:100E700021B1828942F40052828104E082894DF6D8
:100E8000FF731A408281704700B585B001210420AC
:100E9000FFF72CFC01218803FFF728FC4FF40070BA
:100EA000ADF8100018208DF8130003208DF8120003
:100EB00004A91748FFF7FAFA4FF48060ADF8100064
:100EC00004208DF8130004A91148FFF7EFFA4FF43E
:100ED000E13000900020ADF80400ADF80600ADF858
:100EE0000800ADF80C000C20ADF80A00694609486E
:100EF00000F062F8FFF76EFB012240F22551054831
:100F000000F034F801210348FFF7B2FF05B000BD3F
:100F1000000801400038014070B50246002400235B
:100F20000025002040F66A16B14200D100BFC1F38F
:100F3000421501F01F03012606FA03F3012D02D129
:100F40009689334006E0022D02D1168A334001E033
:100F5000968A33400C12012606FA04F416883440AF
:100F600013B10CB1012000E0002070BDF0B50346C4
:100F7000002400260025002040F66A17B94200D15F
:100F800000BF1846C1F3421401F01F06012707FAFB
:100F900006F5012C01D10C3004E0022C01D11030F7
:100FA00000E014301AB107682F43076002E00768B9
:100FB000AF430760F0BD00002DE9F04786B005465D
:100FC0000E460024A24600BFA1460027B08900B10A
:100FD00000BF2F462C8A4CF6FF700440F088044373
:100FE0002C82AC894EF6F3100440B0883189084356
:100FF000718908430443AC81AC8A4FF6FF4004403A
:10100000B0890443AC8201A8FFF790FB1F488742D8
:1010100002D1DDF810A001E0DDF80CA0A88900F4F1
:10102000004040B10AEBCA0000EB0A1031684900E9
:10103000B0FBF1F807E00AEBCA0000EB0A103168D8
:101040008900B0FBF1F86420B8FBF0F0040120093E
:10105000642101FB1089A88900F4004040B13220CE
:1010600000EBC900B0FBF1F000F00700044308E01A
:10107000322000EB09106421B0FBF1F000F00F000A
:1010800004432C8106B0BDE8F08700000038014021
:1010900001468888C0F30800704700BFFEE702E001
:1010A00008C8121F08C1002AFAD1704770470020F3
:1010B00001E001C1121F002AFBD17047002107E0A7
:1010C00042F6E06100BF0A00A1F1010399B2FAD132
:1010D0000200A0F1010398B2F2D1704710B5FFF7FA
:1010E0007BF8FFF731F8FFF7CFFE4FF400611C48A3
:1010F000FFF767FA4FF480511948FFF762FA0020B2
:10110000184908701849087018490870184908707B
:101110000120184908700020174908701749087005
:1011200017490870174908700C20174908701749AB
:101130001748FFF744F81548007816490870134817
:10114000407815490870134800781449087012480F
:1011500000781349087000201249087010BD000083
:101160000008014015000020140000201600002097
:101170001700002018000020470000203D0000203C
:101180004900002046000020480000204A000020BE
:10119000008000083F0000204000002044000020A4
:1011A000450000204D000020FFF798FF012137483F
:1011B000FFF707FA04213548FFF703FA10213348F7
:1011C000FFF7FFF940213148FFF7FBF901213048D3
:1011D000FFF7F7F980212E48FFF7F3F94FF480511C
:1011E0002B48FFF7EEF94FF480412948FFF7E9F962
:1011F0004FF400712648FFF7E4F94FF48041254889
:10120000FFF7DFF902212148FFF7DBF908211F482A
:10121000FFF7D7F920211D48FFF7D3F980211B489C
:10122000FFF7CFF902211A48FFF7CBF94FF400611D
:101230001748FFF7C6F940211548FFF7C2F94FF4E8
:1012400080711348FFF7BDF94FF400511048FFF7C4
:10125000B8F94FF400410E48FFF7B3F94FF40051CD
:101260000C48FFF7AEF94FF400410A48FFF7A9F91F
:101270004FF47A70FFF722FF01218807FFF7D4FBB4
:1012800000200549087000BFFEE70000000801408B
:10129000000C0140001001404F00002010B501215A
:1012A0003048FFF790F904212E48FFF78CF9102100
:1012B0002C48FFF788F940212A48FFF784F90121DB
:1012C0002948FFF780F980212748FFF77CF94FF480
:1012D00080512548FFF777F94FF480412248FFF706
:1012E00072F94FF400712048FFF76DF94FF4804117
:1012F0001E48FFF768F902211A48FFF764F9082130
:101300001848FFF760F920211648FFF75CF98021A3
:101310001448FFF758F902211348FFF754F94FF426
:1013200000611148FFF74FF940210F48FFF74BF9D3
:101330004FF480710C48FFF746F94FF400510A480A
:10134000FFF741F94FF400410748FFF73CF94FF42C
:1013500000510648FFF737F94FF400410348FFF703
:1013600032F910BD00080140000C0140001001409E
:101370009013000800000020500000009E1000089C
:10138000E01300085000002000040000AE10000828
:10139000000000000102030401020304060708091B
:1013A0000204060800000000000000000000000029
:1013B000000000000000000000000000000000002D
:1013C000000000000000000000000000000000001D
:1013D000000000000000000000000000000000000D
:04000005080000ED02
:00000001FF
