:020000040800F2
:1000000048040020010100082F0D0008270D0008FA
:100010002B0D0008550500086720000800000000AF
:10002000000000000000000000000000BD110008FA
:100030005905000800000000790E0008A912000808
:100040001B0100081B0100081B0100081B01000820
:100050001B0100081B0100081B0100081B01000810
:100060001B0100081B0100081B0100081B01000800
:100070001B0100081B0100081B0100081B010008F0
:100080001B0100081B010008490100081B010008B2
:100090001B0100081B0100081B0100081B010008D0
:1000A0001B0100081B0100081B0100081B010008C0
:1000B0000D130008C1130008711700081B01000888
:1000C0001B0100081B0100081B0100081B010008A0
:1000D0001B010008A51A00081B0100081B010008ED
:1000E0005D0500081B0100081B010008DFF80CD0AB
:1000F00000F018F800480047752500084804002063
:100100000648804706480047FEE7FEE7FEE7FEE7B1
:10011000FEE7FEE7FEE7FEE7FEE7FEE7AD120008BA
:10012000ED000008064C074D06E0E06840F00103D2
:1001300094E8070098471034AC42F6D3FFF7DAFF93
:100140007C2500089C25000810B54FF4087118485C
:1001500000F0A2F8012824D1154800F099F81549BB
:100160000880154800781E2817DA13480078401CCC
:10017000114908700F4800880012104908700D4896
:1001800000780F4908700D4801780E4801F06DFFA6
:100190000B4801780B4801F068FF0021044800F08B
:1001A00018F84FF40871024800F00EF810BD000076
:1001B000002401403A0000203E0000202B000020D7
:1001C0002C0000200038014000220A12D3430360B3
:1001D000704721B1826842F00102826003E08268C8
:1001E00022F001028260704700B585B0012148020B
:1001F00000F070FE002000908DF8040001208DF8C2
:1002000005004FF4602002900020039001208DF83B
:1002100010006946184800F067F84FF4404000F0BD
:100220002DFE072301221021134800F085F801223A
:100230004FF40871104800F04BF8012000F0EEF880
:1002400001210D48FFF7C5FF0B4800F0D1F800BFB2
:10025000094800F033F80028FAD1074800F0D8F830
:1002600000BF054800F00AF80028FAD10121024831
:1002700000F0C3F805B000BD002401400146002095
:100280008A6802F004020AB1012000E000207047F1
:100290000146C86C80B2704770B50246002000234A
:1002A00000240B125568CEB205EA060415681D40FD
:1002B00015B10CB1012000E0002070BD0146002006
:1002C0008A6802F008020AB1012000E000207047AD
:1002D00010B50023CBB21AB144681C43446002E05D
:1002E00044689C43446010BD30B5024600200023A2
:1002F00050680F4C20400D790C6844EA05242043D7
:10030000506090680B4C2040D1E902542C434D7949
:1003100044EA450420439060D06A20F470000C7CCD
:10032000641EE4B2234340EA0350D06230BD0000B3
:10033000FFFEF0FFFDF7F1FFF0B504460D4600208B
:100340000021092D11DDE068A5F10A0606EB46073C
:10035000072606FA07F18843A5F10A0606EB4606CA
:1003600003FA06F10843E0600CE0206905EB45075D
:10037000072606FA07F1884305EB450603FA06F15E
:1003800008432061072A0FDA606B561E06EB8607CA
:100390001F2606FA07F18843561E06EB860605FA65
:1003A00006F10843606322E00D2A0FDA206BD61FA6
:1003B00006EB86071F2606FA07F18843D61F06EBD1
:1003C000860605FA06F10843206310E0E06AA2F110
:1003D0000D0606EB86071F2606FA07F18843A2F1F1
:1003E0000D0606EB860605FA06F10843E062F0BD4D
:1003F000816841F008018160704721B1826842F450
:10040000A002826003E0826822F4A002826070474A
:10041000816841F0040181607047000030B10749F4
:10042000096841F40001054A116005E003490968C3
:1004300021F40001014A11607047000008240140C6
:100440000EB54FF0804001F0C7F90121084600F0D9
:1004500021FD4FF0804001F0CDFA1420ADF80400EA
:100460003F20ADF800000020ADF80600ADF8020016
:1004700069464FF0804001F0C3FA0121880701F07E
:1004800099F901221146900701F0ABFA00214FF0D3
:10049000804001F083F9274801F09EF901210220F4
:1004A00000F0F8FC234801F0A5FA4FF4FA60ADF82B
:1004B00004003F20ADF800000020ADF80600ADF8C4
:1004C000020069461B4801F09BFA0121194801F01E
:1004D00071F901221146174801F083FA00211548ED
:1004E00001F05CF9144801F077F90121042000F0D3
:1004F000D1FC114801F07EFA3520ADF804003F2010
:10050000ADF800000020ADF80600ADF80200694625
:10051000094801F075FA0121074801F04BF9012261
:100520001146054801F05DFA0021034801F036F953
:100530000EBD0000000400400008004001490860B2
:100540007047000088860D4201490860704700002E
:1005500000860D4200BFFEE7704700001CB54FF457
:10056000805000F063F800284DD04FF48050009088
:1005700000208DF8040010208DF8050000208DF873
:100580000600684600F066F8642001F069FF01206B
:100590001D4908701D48007800F03F001C49087094
:1005A000084600783F2803D100201A49087004E06B
:1005B00017480078401C1749087016480078C0F3A7
:1005C00083001549087013480178007861F39F1083
:1005D000124908700C480078012801D101F0D8FDBB
:1005E0004FF48050009000208DF8040010208DF80A
:1005F000050001208DF80600684600F02BF84FF446
:10060000805000F00DF81CBD140000202F000020C9
:100610003F0000204000002028000020290000208A
:1006200001490860704700001404014001460020A1
:100630000022074B1B6803EA0102054B14331B68B9
:100640000B4013B10AB1012000E000207047000008
:1006500000040140002123498279002A3AD00A4649
:10066000126803689A430B461A600A1D12680368F1
:100670009A430B1D1A60027911440A6803681A43F1
:100680000A60184A0832126803689A43154B083307
:100690001A601A1D126803689A43124B0C331A60D1
:1006A0004279102A0ED11A1F126803681A430D4BA3
:1006B00008331A601A1D126803681A43094B0C3379
:1006C0001A600DE00749427911440A6803681A4329
:1006D0000A6005E0027911440A6803689A430A60D7
:1006E00070470000000401400EB50121052000F014
:1006F000F1FB00F01DFB4FF48050ADF80800042022
:100700008DF80B0002A90B4800F07EFA0C210020A6
:1007100000F05AFA4FF48050009000208DF8040049
:1007200010208DF8050001208DF806006846FFF7BF
:1007300091FF0EBD000801400149C86070470000EC
:100740000020024030B5044604254FF4302000F06C
:1007500097F80546042D17D10C48006940F00200B7
:100760000A49086108464461006940F04000086198
:100770004FF4302000F084F805460448006941F643
:10078000FD71084001490861284630BD0020024043
:1007900004200B49C96801F0010109B101200EE0F4
:1007A0000749C96801F0040109B1022007E00449C2
:1007B000C96801F0100109B1032000E0042070476E
:1007C000002002400348006940F0800001490861B0
:1007D00070470000002002400549096821F010011F
:1007E000034A116011460968014311607047000017
:1007F0000020024070B504460D460426F00200F0C9
:100800003FF80646042E11D10948006940F0010066
:10081000074908612580F00200F032F806460448D6
:10082000006941F6FE71084001490861304670BD1B
:100830000020024010B5022203E010F8013B01F84D
:10084000013B1300A2F10104E2B2F6D110BD000099
:1008500001460020034A106800F038000843106089
:1008600070470000002002400248034948600348E6
:10087000486070472301674500200240AB89EFCDF7
:1008800000B502460423FFF783FF034603E0FFF7AA
:100890007FFF0346521E012B01D1002AF7D102B976
:1008A0000523184600BD70B506460C46FFF7DCFF71
:1008B0003520FFF741FF3046FFF744FF14F8015B96
:1008C00014F8011B45EA012529463046FFF792FF3F
:1008D000FFF778FF70BD000008B50121042000F08B
:1008E000F9FA0121082000F0F5FA0121102000F0AA
:1008F000F1FA0121084600F0EDFA0120ADF8000000
:1009000010208DF8030003208DF802006946AB48E3
:1009100000F07AF90220ADF8000010208DF80300F5
:1009200003208DF802006946A44800F06DF9042008
:10093000ADF8000010208DF8030003208DF80200B0
:1009400069469E4800F060F90820ADF800001020CC
:100950008DF8030003208DF802006946974800F0E7
:1009600053F91020ADF800008DF8030003208DF836
:1009700002006946914800F047F92020ADF80000D8
:1009800010208DF8030003208DF8020069468B4883
:1009900000F03AF94020ADF8000010208DF8030077
:1009A00003208DF802006946844800F02DF980206C
:1009B000ADF8000010208DF8030003208DF8020030
:1009C00069467E4800F020F90120ADF800001020B3
:1009D0008DF8030003208DF802006946784800F086
:1009E00013F90220ADF8000010208DF80300032059
:1009F0008DF802006946724800F006F94FF48060F5
:100A0000ADF8000010208DF8030003208DF80200DF
:100A100069466B4800F0F8F84FF40060ADF800004C
:100A200010208DF8030003208DF802006946644809
:100A300000F0EAF82020ADF8000010208DF8030047
:100A400003208DF8020069465D4800F0DDF8402083
:100A5000ADF8000010208DF8030003208DF802008F
:100A60006946574800F0D0F88020ADF8000010200B
:100A70008DF8030003208DF802006946504800F00D
:100A8000C3F84FF48070ADF8000010208DF803001B
:100A900003208DF802006946494800F0B5F84FF48C
:100AA0008050ADF8000010208DF8030003208DF871
:100AB00002006946424800F0A7F84FF40050ADF834
:100AC000000010208DF8030003208DF80200694615
:100AD0003B4800F099F84FF48040ADF8000010203A
:100AE0008DF8030003208DF802006946344800F0B9
:100AF0008BF84FF40040ADF8000010208DF8030093
:100B000003208DF8020069462D4800F07DF84FF46F
:100B10000070ADF8000010208DF8030003208DF860
:100B200002006946264800F06FF84FF40050ADF817
:100B3000000010208DF8030002208DF802006946A5
:100B4000204800F061F84FF48040ADF8000010201C
:100B50008DF8030002208DF802006946194800F064
:100B600053F84FF40040ADF8000010208DF803005A
:100B700002208DF802006946124800F045F84FF453
:100B80000060ADF8000010208DF8030003208DF800
:100B900002006946094800F037F8012000F066F9C4
:100BA000002000F0B9FA0020FFF7CEFC0020FFF78C
:100BB000C5FC002000F05AF908BD00000008014003
:100BC000000C01400010014030B500228B071C0FC3
:100BD0000F2303FA04F20B4B8C1053F82430934389
:100BE000084C8D1044F8253023468C1053F82430DF
:100BF0008C07240F00FA04F42343024C8D1044F8B0
:100C0000253030BD080001402DE9F04102460025A5
:100C10000026002000230024002791F803C00CF0D8
:100C20000F0591F803C00CF0100CBCF1000F03D0BD
:100C300091F802C04CEA050591F800C0BCF1000F24
:100C400031D0146800202BE04FF0010C0CFA00F3B7
:100C5000B1F800C00CEA03069E4220D183004FF099
:100C60000F0C0CFA03F7BC4305FA03FC4CEA04042E
:100C700091F803C0BCF1280F06D14FF0010C0CFA1B
:100C800000FCC2F814C00AE091F803C0BCF1480FA0
:100C900005D14FF0010C0CFA00FCC2F810C0401C4A
:100CA0000828D1D31460B1F800C0BCF1FF0F34DDC7
:100CB000546800202EE000F1080C4FF0010808FAFB
:100CC0000CF3B1F800C00CEA03069E4221D1830068
:100CD0004FF00F0C0CFA03F7BC4305FA03FC4CEA87
:100CE000040491F803C0BCF1280F05D100F1080CF1
:100CF00008FA0CF8C2F8148091F803C0BCF1480F50
:100D000007D100F1080C4FF0010808FA0CF8C2F8FE
:100D10001080401C0828CED35460BDE8F0814161AA
:100D200070470161704700BFFEE700BFFEE77047F4
:100D300008B54FF4A06000F08FF825208DF8000072
:100D400001208DF8010000208DF8020001208DF8AF
:100D50000300684600F048F81C208DF800000020D1
:100D60008DF801008DF8020001208DF8030068461F
:100D700000F03AF81D208DF8000002208DF80100E7
:100D800001208DF802008DF80300684600F02CF871
:100D90001E208DF8000002208DF8010000208DF843
:100DA000020001208DF80300684600F01DF81220B3
:100DB0008DF8000003208DF8010000208DF802005E
:100DC00001208DF80300684600F00EF828208DF809
:100DD000000001208DF801008DF802008DF803005D
:100DE000684600F001F808BD70B5002100230F220D
:100DF000C47804B3154C246804F4E064C4F5E064DA
:100E0000210AC1F10403CA40447804FA03F184784A
:100E10001440214309010E4C0678A155047804F0D2
:100E20001F050124AC4005786D11AD0005F1E025EA
:100E3000C5F8004109E0047804F01F050124AC4026
:100E4000044D0678761145F8264070BD0CED00E0A3
:100E500000E400E080E100E002490143024A116041
:100E6000704700000000FA050CED00E0014908623F
:100E70007047000000000E4270470000014600204D
:100E8000034A506820F44040084350607047000017
:100E90000010024029B1064AD2690243044BDA61CC
:100EA00004E0034AD2698243014BDA6170470000D3
:100EB0000010024029B1064A12690243044B1A612C
:100EC00004E0034A12698243014B1A617047000033
:100ED0000010024029B1064A92690243044B9A610C
:100EE00004E0034A92698243014B9A617047000013
:100EF0000010024029B1064AD2680243044BDA606E
:100F000004E0034AD2688243014BDA607047000074
:100F10000010024008B50020009000F035F80120D4
:100F200000F0F4F81748006800F002000090009804
:100F3000022825D11020FFF74FFC0220FFF788FC84
:100F4000002000F0D7F8002000F00CF94FF480608A
:100F500000F0FCF84FF46011002000F015F90120BA
:100F600000F00CF900BF392000F09EF80028FAD0FC
:100F7000022000F017F900BF00F0B4F80828FBD1F8
:100F800008BD0000001002400F48006840F001005A
:100F90000D490860084640680C4908400A49486005
:100FA000084600680A490840074908600846006882
:100FB00020F4802008600846406820F4FE00486065
:100FC0004FF41F0088607047001002400000FFF8D7
:100FD000FFFFF6FE30B500210022002400232D4D36
:100FE0006D6805F00C0121B1042905D0082923D131
:100FF00005E0294D056022E0274D05601FE0254DE5
:101000006D6805F47012234D6D6805F48034022577
:1010100005EB92421CB9214D554305600BE01D4D77
:101020006D6805F400351DB11C4D5543056002E0A7
:10103000194D5543056002E0174D056000BF00BF24
:10104000144D6D6805F0F0010909154D6B5C0568DC
:10105000DD4045600F4D6D6805F4E061090A104DF3
:101060006B5C4568DD4085600A4D6D6805F4605134
:10107000C90A0B4D6B5C4568DD40C560054D6D6868
:1010800005F44041890B074D6B5CC568B5FBF3F572
:10109000056130BD0010024000127A0000093D00D9
:1010A000000000201000002010B50146002200239F
:1010B00000204A11012A02D1094C236806E0022AC5
:1010C00002D1074C236A01E0054C636A01F01F025C
:1010D000012494401C400CB1012000E0002010BD10
:1010E000001002400248406800F00C007047000009
:1010F0000010024001460020034A506820F0F00032
:101100000843506070470000001002400149086029
:10111000704700000000424200210B4A11700A4A49
:10112000203A82F82010012802D0042808D103E0D8
:101130000121054A117004E00521034A117000E005
:1011400000BF00BF70470000201002400146002091
:10115000034A506820F4E060084350607047000084
:101160000010024001460020034A506820F46050FD
:1011700040EAC10050607047001002400149086613
:10118000704700000000424202460020044B5868AD
:1011900020F47C1042EA01031843014B5860704769
:1011A0000010024001460020034A506820F003006E
:1011B000084350607047000000100240704710B5AF
:1011C00000F002F810BD00000CB500200190009066
:1011D0003348006840F480303149086000BF30482F
:1011E000006800F4003000900198401C01900098C5
:1011F00018B90198B0F5A06FF1D12948006800F442
:10120000003010B10120009001E000200090009813
:10121000012843D12348006840F0100021490860AC
:101220000846006820F0030008600846006840F0A7
:10123000020008601A48406819494860084640683A
:1012400048600846406840F480604860084640684E
:1012500020F47C1048600846406840F4E81048607C
:101260000846006840F08070086000BF0C480068C5
:1012700000F000700028F9D00948406820F0030011
:10128000074948600846406840F00200486000BFD7
:101290000348406800F00C000828F9D10CBD00009C
:1012A00000100240002002407047000010B51348B3
:1012B000006840F001001149086008464068104984
:1012C00008400E494860084600680E4908400B492E
:1012D00008600846006820F48020086008464068DE
:1012E00020F4FE0048604FF41F008860FFF767FF9E
:1012F0004FF000600449086010BD0000001002407B
:101300000000FFF8FFFFF6FE08ED00E010B5012138
:10131000880700F055FB00283BD01E480078401C91
:101320001C490870084600781B49097888422CD16E
:1013300000214FF0804000F043FA0020154908706A
:1013400000F0B2FE4FF400611448FFF7E8FC1448C7
:101350000078401C12490870012012490870C1022F
:101360000E48FFF7DCFC1048007810490870104860
:101370000078104908700D4800780F4908700D4832
:10138000007848700D48FFF78EFA0121880700F0B9
:1013900014FA10BD30000020320000200008014087
:1013A0003100002018000020280000202E0000201E
:1013B000290000202F0000203400002000900008A9
:1013C00010B50121D64800F0FBFA002870D0D548AE
:1013D000007801286DD1C102D348FFF7A2FCD348A1
:1013E000007800F0080018B90020D149087002E028
:1013F0000120CF490870CD48007800F0040018B9EA
:101400000020CC49087002E00120CA490870C74892
:10141000007800F0020018B90020C749087002E007
:101420000120C5490870C148007800F0010018B9D2
:101430000020C249087002E00120C0490870C0487D
:10144000007800F0800018B90020BE49087002E062
:101450000120BC490870BA48007800F0400018B973
:101460000020B949087002E00120B7490870B4486B
:10147000007800F0200018B90020B449087002E09C
:101480000120B2490870AE48007800F0100018B989
:101490000020AF49087002E00120AD490870A8485B
:1014A000007800F0080028B90020AA49087004E07C
:1014B00035E130E10120A7490870A148007800F02B
:1014C000040018B90020A449087002E00120A249D4
:1014D00008709B48007800F0020018B900209F496E
:1014E000087002E001209D4908709548007800F0DE
:1014F000010018B900209A49087002E001209849BB
:1015000008708B48007850B14FF400419548FFF7C0
:1015100008FC4FF480419348FFF701FC09E04FF4C9
:1015200080419048FFF7FDFB4FF400418D48FFF7E5
:10153000F6FB8048007850B14FF480518948FFF79E
:10154000F0FB4FF400518748FFF7E9FB09E04FF447
:1015500000518448FFF7E5FB4FF480518148FFF7C5
:10156000DEFB7548007840B140216F48FFF7D9FB9A
:1015700080216D48FFF7D3FB07E080216A48FFF721
:10158000D0FB40216848FFF7CAFB6C48007840B1A7
:1015900020216548FFF7C5FB10216348FFF7BFFB1B
:1015A00007E010216048FFF7BCFB20215E48FFF7F1
:1015B000B6FB6448007850B14FF480416A48FFF7A9
:1015C000B0FB4FF400416848FFF7A9FB09E04FF476
:1015D00000416548FFF7A5FB4FF480416248FFF7E3
:1015E0009EFB5948007850B14FF400515E48FFF718
:1015F00098FB4FF400715B48FFF791FB09E04FF453
:1016000000715848FFF78DFB4FF400515648FFF723
:1016100086FB4E48007850B14FF480615148FFF787
:1016200080FB4FF400614F48FFF779FB09E04FF46E
:1016300000614C48FFF775FB4FF480614948FFF7A4
:101640006EFB4348007840B102214648FFF769FB32
:1016500001214448FFF763FB07E001214148FFF700
:1016600060FB02213F48FFF75AFB3A48007840B13F
:1016700004212D48FFF755FB08212B48FFF74FFBAE
:1016800007E008212848FFF74CFB04212648FFF714
:1016900046FB3148007840B101212348FFF741FB68
:1016A00002212148FFF73BFB07E002211E48FFF71C
:1016B00038FB01211C48FFF732FB2848007848B16D
:1016C0004FF480712748FFF72CFB80212548FFF756
:1016D00026FB08E080212348FFF723FB4FF48071AD
:1016E0002048FFF71CFB1E48007840B120211D4810
:1016F000FFF717FB40211B48FFF711FB07E04021D4
:101700001848FFF70EFB20211648FFF708FB0121C0
:10171000164800F055F80121014800F04EF810BDC0
:101720000004004018000020000801402E000020A6
:10173000250000202400002023000020220000209B
:101740002F00002021000020200000201F0000208A
:101750001E0000201D0000201C0000201B00002097
:101760001A000020000C0140001001400008004059
:1017700010B50021074800F023F800F095FC4FF465
:1017800000610548FFF7CBFA0121024800F015F887
:1017900010BD0000000800400008014021B102888F
:1017A00042F08002028004E002884FF67F731A4004
:1017B00002807047CA4302827047CA430282704760
:1017C00021B1028842F00102028004E002884FF653
:1017D000FE731A400280704710B504466848844280
:1017E00008D10121C014FFF785FB0021E014FFF7A9
:1017F00081FBC4E0B4F1804F08D101210846FFF716
:1018000059FB00210120FFF755FBB8E05D488442F9
:1018100008D101210220FFF74DFB00210220FFF734
:1018200049FBACE05848844208D101210420FFF76D
:1018300041FB00210420FFF73DFBA0E05348844218
:1018400008D101210820FFF735FB00210820FFF710
:1018500031FB94E04E48844208D101211020FFF76B
:1018600029FB00211020FFF725FB88E0494884422E
:1018700008D101212020FFF71DFB00212020FFF7C8
:1018800019FB7CE04448844208D101214014FFF751
:1018900031FB00216014FFF72DFB70E03F488442CC
:1018A00009D10121C804FFF725FB00214FF40020D6
:1018B000FFF720FB63E03A48844209D10121080583
:1018C000FFF718FB00214FF48010FFF713FB56E0E1
:1018D0003448844209D101214805FFF70BFB002160
:1018E0004FF40010FFF706FB49E02F48844208D16F
:1018F00001214020FFF7DEFA00214020FFF7DAFA4D
:101900003DE02A48844208D101218020FFF7D2FA25
:1019100000218020FFF7CEFA31E02548844208D12B
:1019200001218015FFF7C6FA0021A015FFF7C2FAC2
:1019300025E02048844209D101210804FFF7DAFAA2
:1019400000214FF48030FFF7D5FA18E01A4884429E
:1019500009D101214804FFF7CDFA00214FF40030EE
:10196000FFF7C8FA0BE01548844208D1012188042A
:10197000FFF7C0FA00214FF48020FFF7BBFA10BD3B
:10198000002C01400004004000080040000C004012
:10199000001000400014004000340140004C0140A1
:1019A000005001400054014000180040001C00405D
:1019B0000020004000400140004401400048014038
:1019C00030B50246002000230024158A05EA0103F1
:1019D000958905EA010413B10CB1012000E0002053
:1019E00030BD1AB183890B43838102E083898B4325
:1019F0008381704701894FF6F87211400181704769
:101A0000002202881D4B98420ED01D4B98420BD0ED
:101A1000B0F1804F08D01B4B984205D01A4B98422A
:101A200002D01A4B984204D14FF68F731A404B885C
:101A30001A43174B984207D0164B984204D04FF6E2
:101A4000FF431A40CB881A4302808B8883850B881A
:101A500003850A4B98420BD0094B984208D00E4B95
:101A6000984205D00D4B984202D00D4B984201D1BF
:101A70000B7A03860123838270470000002C01400B
:101A8000003401400004004000080040000C004009
:101A9000001000400014004000400140004401409C
:101AA0000048014010B540F22551C94800F017FA2E
:101AB000002814D0C64800F0CDFAC4B2C54800785A
:101AC00090B9C54804700120C2490870C248007826
:101AD000C2490978884203D10120C149087075E1E3
:101AE0000020BF49087071E1BA480078012805D18B
:101AF000BC4804700220B749087067E1B548007817
:101B0000022805D1B84804700320B24908705DE18D
:101B1000B0480078032805D1B44804700420AD49CA
:101B2000087053E1AB4800780428D8D1E4B9AC4838
:101B30000078C8B1AC480078C0F38300A9490870A8
:101B4000A9480178007861F39F10A7490870012027
:101B5000A74908700020A7490870A7490870A7493D
:101B600008709C49087096E0112C10D19C480078B0
:101B700068B100209E4908709E49087001209E4966
:101B8000087000209D4908709249087083E0332C4A
:101B90000FD19348007860B101209549087000206A
:101BA00094490870944908709449087089490870EC
:101BB00071E0442C10D18A48007868B100208C492B
:101BC000087001208B49087000208B4908708B49F0
:101BD0000870804908705EE0552C06D18048007876
:101BE00018B100207B49087055E0AA2C1ED17C4812
:101BF0000078D8B17B48007800F00F017A4800786F
:101C000061F31F1078490870764800780011754913
:101C100008700120764908700020764908707649DE
:101C20000870764908706B49087034E0BB2C10D1FD
:101C30006B48007868B100206D4908706D490870E4
:101C40006D49087001206D490870002061490870D5
:101C500021E0EE2C10D16248007868B10020644980
:101C6000087064490870644908700120634908706D
:101C70000020584908700EE0DD2C09D15848007842
:101C800030B101205E49087000205249087002E01E
:101C900000205049087056480078012802D100F011
:101CA00077FA93E053480078012822D14B48007816
:101CB00054490870544800785449087054480078D2
:101CC000544908704F480178414800F0CEF94F4818
:101CD00001783F4800F0C9F94E4801783C4800F0CF
:101CE000C4F905213A4800F0C0F9002041490870C4
:101CF0006CE04148007801281FD1384800784149FC
:101D0000087041480078414908704148007800F067
:101D10003F00404908703B4801782D4800F0A5F984
:101D20003C4801782A4800F0A0F90521284800F035
:101D30009CF900203049087048E0304800780128BC
:101D40002AD1264800782F4908702F4800780007CC
:101D5000000E2F49097840EA11102C4908702C48D0
:101D6000007800F00F002B490870264801781848C9
:101D700000F07BF925480178154800F076F92548F0
:101D80000178134800F071F90521114800F06DF950
:101D900000201A49087019E019480078012815D167
:101DA0001D4800880012174908701B480078174921
:101DB000087014480178064800F057F91348017874
:101DC000034800F052F900200C49087010BD0000D3
:101DD00000380140260000202700002037000020A6
:101DE0003300002028000020290000202A000020C5
:101DF000140000201500002016000020170000200D
:101E0000190000202B0000202E0000202C000020B4
:101E10002F0000202D0000203A00002021B18289EF
:101E200042F40052828104E082894DF6FF731A4029
:101E30008281704700B585B001210420FFF74AF880
:101E400001218803FFF746F84FF40070ADF8100049
:101E500018208DF8130003208DF8120004A91748EC
:101E6000FEF7D2FE4FF48060ADF8100048208DF8E8
:101E7000130004A91148FEF7C7FE4FF4E1300090AB
:101E80000020ADF80400ADF80600ADF80800ADF88C
:101E90000C000C20ADF80A006946094800F06EF805
:101EA000FEF746FF012240F22551054800F041F8B7
:101EB00001210348FFF7B2FF05B000BD0008014053
:101EC0000038014002460020B1F5007F00D100BF7C
:101ED00013880B400BB1012000E00020704770B563
:101EE0000246002400230025002040F66A16B14275
:101EF00000D100BFC1F3421501F01F03012606FA0D
:101F000003F3012D02D19689334006E0022D02D160
:101F1000168A334001E0968A33400C12012606FAF5
:101F200004F41688344013B10CB1012000E0002005
:101F300070BDF0B50346002400260025002040F6C1
:101F40006A17B94200D100BF1846C1F3421401F02C
:101F50001F06012707FA06F5012C01D10C3004E019
:101F6000022C01D1103000E014301AB107682F4361
:101F7000076002E00768AF430760F0BD2DE9F04756
:101F800086B005460E460024A24600BFA1460027A3
:101F9000B08900B100BF2F462C8A4CF6FF70044078
:101FA000F08804432C82AC894EF6F3100440B088CC
:101FB00031890843718908430443AC81AC8A4FF6E8
:101FC000FF400440B0890443AC8201A8FFF702F847
:101FD0001F48874202D1DDF810A001E0DDF80CA017
:101FE000A88900F4004040B10AEBCA0000EB0A10D7
:101FF00031684900B0FBF1F807E00AEBCA0000EBDA
:102000000A1031688900B0FBF1F86420B8FBF0F0E9
:1020100004012009642101FB1089A88900F4004013
:1020200040B1322000EBC900B0FBF1F000F0070036
:10203000044308E0322000EB09106421B0FBF1F00A
:1020400000F00F0004432C8106B0BDE8F0870000CB
:102050000038014001468888C0F308007047C1F38A
:1020600008028280704700BFFEE770B504460D4647
:1020700029462046FFF7F3FF00BF80212046FFF7E7
:1020800021FF0028F9D070BD02E008C8121F08C166
:10209000002AFAD170477047002001E001C1121FE9
:1020A000002AFBD17047000010B54FF4804135483D
:1020B000FEF735FE4FF400413248FEF730FE4FF494
:1020C00000513048FEF72BFE4FF480512D48FEF7AB
:1020D00026FE80212C48FEF722FE40212A48FEF7EA
:1020E0001EFE10212848FEF71AFE20212648FEF782
:1020F00016FE4FF400412548FEF711FE4FF48041D3
:102100002248FEF70CFE4FF400711E48FEF707FE52
:102110004FF400511D48FEF702FE4FF400611948CC
:10212000FEF7FDFD4FF480611648FEF7F8FD012132
:102130001448FEF7F4FD02211248FEF7F0FD0821D5
:102140001148FEF7ECFD04210F48FEF7E8FD0221DF
:102150000D48FEF7E4FD01210B48FEF7E0FD80216C
:102160000848FEF7DCFD4FF480710648FEF7D7FD06
:1021700040210448FEF7D3FD20210248FEF7CFFDA1
:1021800010BD0000000C014000080140001001409B
:1021900010B5A0480078012874D19F48007800F05D
:1021A000080018B900209D49087002E001209B49F1
:1021B00008709948007800F0040018B90020984988
:1021C000087002E00120964908709348007800F0FA
:1021D000020018B900209349087002E001209149DB
:1021E00008708D48007800F0010018B900208E4971
:1021F000087002E001208C4908708C48007800F0DB
:10220000800018B900208A49087002E0012088493E
:1022100008708648007800F0400018B90020854911
:10222000087002E00120834908708048007800F0BF
:10223000200018B900208049087002E001207E4982
:1022400008707A48007800F0100018B900207B4927
:10225000087002E00120794908707448007800F0A5
:10226000080018B900207649087002E0012074497E
:1022700008706E48007800F0040020B90020714911
:10228000087003E0C1E001206E49087067480078DB
:1022900000F0020018B900206B49087002E001202C
:1022A000694908706148007800F0010018B9002001
:1022B0006649087002E001206449087057480078B8
:1022C00028B14FF400416248FEF72BFD04E04FF4C3
:1022D00080415F48FEF725FD5148007828B14FF452
:1022E00080515B48FEF71DFD04E04FF40051584853
:1022F000FEF717FD4B48007820B140215548FEF706
:1023000010FD03E080215348FEF70BFD464800789E
:1023100020B120214F48FEF704FD03E010214D4875
:10232000FEF7FFFC4248007828B14FF480414A484C
:10233000FEF7F7FC04E04FF400414748FEF7F1FCDC
:102340003C48007828B14FF400514348FEF7E9FCBF
:1023500004E04FF400713E48FEF7E3FC3648007895
:1023600028B14FF480613A48FEF7DBFC04E04FF4FB
:1023700000613748FEF7D5FC3048007820B10221D3
:102380003348FEF7CEFC03E001213148FEF7C9FCDB
:102390002B48007820B104212E48FEF7C2FC03E050
:1023A00008212C48FEF7BDFC2648007820B1012109
:1023B0002848FEF7B6FC03E002212648FEF7B1FCF0
:1023C0002148007828B14FF480712148FEF7A9FC1C
:1023D00003E080211E48FEF7A4FC1C48007820B1D1
:1023E00020211B48FEF79DFC03E040211848FEF722
:1023F00098FC4FF400611748FEF793FC0121880711
:10240000FFF7DEF900200349087000201349087027
:1024100010BD00001800002028000020250000202A
:10242000240000202300002022000020290000209A
:1024300021000020200000201F0000201E0000209E
:102440001D0000201C0000201B0000201A0000209E
:10245000000C014000080140001001401400002061
:10246000002107E04FF47A7100BF0A00A1F10103D7
:1024700099B2FAD10200A0F1010398B2F2D17047EB
:1024800010B5002025490870FEF744FDFEF724FA38
:10249000FDF7D6FFFEF728F9FFF7CCFCFDF7A4FE09
:1024A0004FF400611E48FEF73AFC00201D490870F9
:1024B0001D4908701D4908701D49087001201D49FB
:1024C000087000201C4908701C4908701C490870DD
:1024D0001C4908700A201C4908701C491C48FEF75A
:1024E000A9F91A4800781B490870184840781A4919
:1024F000087000211948FDF76CFE00211848FFF70D
:102500005FF92020174908700520174908701749FE
:10251000087000201649087010BD00003700002028
:1025200000080140140000201500002016000020C3
:102530001900002018000020310000202600002093
:102540003300002030000020320000203400002042
:10255000009000082E0000202F00002000240140E1
:1025600000040040390000203C0000202A00002028
:102570003E000020FFF784FF00BFFEE79C25000817
:10258000000000204400000088200008E02500082A
:10259000440000200404000098200008000000000F
:1025A00001020304010203040607080902040608E5
:1025B000000000000000000000000000000000001B
:1025C000000000000000000000000000000000000B
:1025D00000000000000000000000000000000000FB
:04000005080000ED02
:00000001FF
