:020000040800F2
:1000000040040020010100082F0B0008270B000806
:100010002B0B000855050008BF1E0008000000005B
:10002000000000000000000000000000A50F000814
:100030005905000800000000610C0008911000083C
:100040001B0100081B0100081B0100081B01000820
:100050001B0100081B0100081B0100081B01000810
:100060001B0100081B0100081B0100081B01000800
:100070001B0100081B0100081B0100081B010008F0
:100080001B0100081B010008490100081B010008B2
:100090001B0100081B0100081B0100081B010008D0
:1000A0001B0100081B0100081B0100081B010008C0
:1000B000F5100008B5110008651500081B010008BF
:1000C0001B0100081B0100081B0100081B010008A0
:1000D0001B010008FD1800081B0100081B01000897
:1000E0001B0100081B0100081B010008DFF80CD0F1
:1000F00000F018F800480047D12300084004002011
:100100000648804706480047FEE7FEE7FEE7FEE7B1
:10011000FEE7FEE7FEE7FEE7FEE7FEE795100008D4
:10012000ED000008064C074D06E0E06840F00103D2
:1001300094E8070098471034AC42F6D3FFF7DAFF93
:10014000582400087824000810B54FF408711848A6
:1001500000F0A2F8012824D1154800F099F81549BB
:100160000880154800781E2817DA13480078401CCC
:10017000114908700F4800880012104908700D4896
:1001800000780F4908700D4801780E4801F099FE7B
:100190000B4801780B4801F094FE0021044800F060
:1001A00018F84FF40871024800F00EF810BD000076
:1001B000002401403A0000203E0000202B000020D7
:1001C0002C0000200038014000220A12D3430360B3
:1001D000704721B1826842F00102826003E08268C8
:1001E00022F001028260704700B585B0012148020B
:1001F00000F064FD002000908DF8040001208DF8CF
:1002000005004FF4602002900020039001208DF83B
:1002100010006946184800F067F84FF4404000F0BD
:1002200021FD072301221021134800F085F8012247
:100230004FF40871104800F04BF8012000F0EEF880
:1002400001210D48FFF7C5FF0B4800F0D1F800BFB2
:10025000094800F033F80028FAD1074800F0D8F830
:1002600000BF054800F00AF80028FAD10121024831
:1002700000F0C3F805B000BD002401400146002095
:100280008A6802F004020AB1012000E000207047F1
:100290000146C86C80B2704770B50246002000234A
:1002A00000240B125568CEB205EA060415681D40FD
:1002B00015B10CB1012000E0002070BD0146002006
:1002C0008A6802F008020AB1012000E000207047AD
:1002D00010B50023CBB21AB144681C43446002E05D
:1002E00044689C43446010BD30B5024600200023A2
:1002F00050680F4C20400D790C6844EA05242043D7
:10030000506090680B4C2040D1E902542C434D7949
:1003100044EA450420439060D06A20F470000C7CCD
:10032000641EE4B2234340EA0350D06230BD0000B3
:10033000FFFEF0FFFDF7F1FFF0B504460D4600208B
:100340000021092D11DDE068A5F10A0606EB46073C
:10035000072606FA07F18843A5F10A0606EB4606CA
:1003600003FA06F10843E0600CE0206905EB45075D
:10037000072606FA07F1884305EB450603FA06F15E
:1003800008432061072A0FDA606B561E06EB8607CA
:100390001F2606FA07F18843561E06EB860605FA65
:1003A00006F10843606322E00D2A0FDA206BD61FA6
:1003B00006EB86071F2606FA07F18843D61F06EBD1
:1003C000860605FA06F10843206310E0E06AA2F110
:1003D0000D0606EB86071F2606FA07F18843A2F1F1
:1003E0000D0606EB860605FA06F10843E062F0BD4D
:1003F000816841F008018160704721B1826842F450
:10040000A002826003E0826822F4A002826070474A
:10041000816841F0040181607047000030B10749F4
:10042000096841F40001054A116005E003490968C3
:1004300021F40001014A11607047000008240140C6
:100440000EB54FF0804001F0F3F80121084600F0AE
:1004500015FC4FF0804001F0F9F91420ADF80400CC
:100460003F20ADF800000020ADF80600ADF8020016
:1004700069464FF0804001F0EFF90121880701F053
:10048000C5F801221146900701F0D7F900214FF07D
:10049000804001F0AFF8274801F0CAF8012102209E
:1004A00000F0ECFB234801F0D1F94FF4FA60ADF80D
:1004B00004003F20ADF800000020ADF80600ADF8C4
:1004C000020069461B4801F0C7F90121194801F0F3
:1004D0009DF801221146174801F0AFF90021154897
:1004E00001F088F8144801F0A3F80121042000F07D
:1004F000C5FB114801F0AAF93520ADF804003F20F2
:10050000ADF800000020ADF80600ADF80200694625
:10051000094801F0A1F90121074801F077F801220B
:100520001146054801F089F90021034801F062F8FD
:100530000EBD0000000400400008004001490860B2
:100540007047000088860D4201490860704700002E
:1005500000860D4200BFFEE7704700000149C860F9
:10056000704700000020024030B5044604254FF4D7
:10057000302000F097F80546042D17D10C4800698B
:1005800040F002000A49086108464461006940F0F1
:10059000400008614FF4302000F084F8054604481C
:1005A000006941F6FD71084001490861284630BDE7
:1005B0000020024004200B49C96801F0010109B183
:1005C00001200EE00749C96801F0040109B10220C9
:1005D00007E00449C96801F0100109B1032000E0F7
:1005E00004207047002002400348006940F080006A
:1005F0000149086170470000002002400549096870
:1006000021F01001034A116011460968014311608D
:10061000704700000020024070B504460D460426D5
:10062000F00200F03FF80646042E11D10948006997
:1006300040F00100074908612580F00200F032F81F
:1006400006460448006941F6FE7108400149086108
:10065000304670BD0020024010B5022203E010F8C1
:10066000013B01F8013B1300A2F10104E2B2F6D113
:1006700010BD000001460020034A106800F0380059
:100680000843106070470000002002400248034900
:1006900048600348486070472301674500200240D6
:1006A000AB89EFCD00B502460423FFF783FF034675
:1006B00003E0FFF77FFF0346521E012B01D1002A02
:1006C000F7D102B90523184600BD70B506460C46A1
:1006D000FFF7DCFF3520FFF741FF3046FFF744FF0F
:1006E00014F8015B14F8011B45EA01252946304640
:1006F000FFF792FFFFF778FF70BD000008B50121FA
:10070000042000F0DBFA0121082000F0D7FA0121D3
:10071000102000F0D3FA0121084600F0CFFA0120A2
:10072000ADF8000010208DF8030003208DF80200C2
:100730006946B24800F068F90220ADF800001020C8
:100740008DF8030003208DF802006946AB4800F0E5
:100750005BF90420ADF8000010208DF803000320A1
:100760008DF802006946A54800F04EF90820ADF862
:10077000000010208DF8030003208DF80200694668
:100780009E4800F041F91020ADF800008DF80300FC
:1007900003208DF802006946984800F035F92020C2
:1007A000ADF8000010208DF8030003208DF8020042
:1007B0006946924800F028F94020ADF8000010206A
:1007C0008DF8030003208DF8020069468B4800F085
:1007D0001BF98020ADF8000010208DF803000320E5
:1007E0008DF802006946854800F00EF90120ADF849
:1007F000000010208DF8030003208DF802006946E8
:100800007F4800F001F90220ADF8000010208DF8BB
:10081000030003208DF802006946794800F0F4F8DF
:100820004FF48060ADF8000010208DF80300032025
:100830008DF802006946724800F0E6F84FF4006057
:10084000ADF8000010208DF8030003208DF80200A1
:1008500069466B4800F0D8F82020ADF80000102061
:100860008DF8030003208DF802006946644800F00B
:10087000CBF84020ADF8000010208DF803000320D5
:100880008DF8020069465E4800F0BEF88020ADF8A1
:10089000000010208DF8030003208DF80200694647
:1008A000574800F0B1F84FF48070ADF80000102008
:1008B0008DF8030003208DF802006946504800F0CF
:1008C000A3F84FF48050ADF8000010208DF803001D
:1008D00003208DF802006946494800F095F84FF46E
:1008E0000050ADF8000010208DF8030003208DF8B3
:1008F00002006946424800F087F84FF48040ADF8A6
:10090000000010208DF8030003208DF802006946D6
:100910003B4800F079F84FF40040ADF8000010209B
:100920008DF8030003208DF802006946344800F07A
:100930006BF84FF40070ADF8000010208DF8030044
:1009400003208DF8020069462D4800F05DF84FF451
:100950000050ADF8000010208DF8030002208DF843
:1009600002006946274800F04FF84FF48040ADF888
:10097000000010208DF8030002208DF80200694667
:10098000204800F041F84FF40040ADF8000010207E
:100990008DF8030002208DF802006946194800F026
:1009A00033F84FF40060ADF8000010208DF803001C
:1009B00003208DF802006946104800F025F84FF436
:1009C0008050ADF8000010208DF8030003208DF852
:1009D00002006946094800F017F8012000F03AF9D2
:1009E000002000F08DFA0020FFF7AEFD0020FFF799
:1009F000A5FD002000F02EF908BD00000008014010
:100A0000000C0140001001402DE9F0410246002594
:100A10000026002000230024002791F803C00CF0DA
:100A20000F0591F803C00CF0100CBCF1000F03D0BF
:100A300091F802C04CEA050591F800C0BCF1000F26
:100A400031D0146800202BE04FF0010C0CFA00F3B9
:100A5000B1F800C00CEA03069E4220D183004FF09B
:100A60000F0C0CFA03F7BC4305FA03FC4CEA040430
:100A700091F803C0BCF1280F06D14FF0010C0CFA1D
:100A800000FCC2F814C00AE091F803C0BCF1480FA2
:100A900005D14FF0010C0CFA00FCC2F810C0401C4C
:100AA0000828D1D31460B1F800C0BCF1FF0F34DDC9
:100AB000546800202EE000F1080C4FF0010808FAFD
:100AC0000CF3B1F800C00CEA03069E4221D183006A
:100AD0004FF00F0C0CFA03F7BC4305FA03FC4CEA89
:100AE000040491F803C0BCF1280F05D100F1080CF3
:100AF00008FA0CF8C2F8148091F803C0BCF1480F52
:100B000007D100F1080C4FF0010808FA0CF8C2F800
:100B10001080401C0828CED35460BDE8F0814161AC
:100B200070470161704700BFFEE700BFFEE77047F6
:100B300008B54FF4A06000F083F825208DF8000080
:100B400001208DF8010000208DF8020001208DF8B1
:100B50000300684600F03CF81C208DF800000020DF
:100B60008DF801008DF8020001208DF80300684621
:100B700000F02EF81D208DF8000002208DF80100F5
:100B800001208DF802008DF80300684600F020F87F
:100B90001E208DF8000002208DF8010000208DF845
:100BA000020001208DF80300684600F011F81220C1
:100BB0008DF8000003208DF8010000208DF8020060
:100BC00001208DF80300684600F002F808BD00001F
:100BD00070B5002100230F22C47804B3154C24689B
:100BE00004F4E064C4F5E064210AC1F10403CA40DE
:100BF000447804FA03F184781440214309010E4C2F
:100C00000678A155047804F01F050124AC4005784E
:100C10006D11AD0005F1E025C5F8004109E004784B
:100C200004F01F050124AC40044D0678761145F808
:100C3000264070BD0CED00E000E400E080E100E043
:100C400002490143024A1160704700000000FA05A2
:100C50000CED00E0014908627047000000000E4200
:100C60007047000001460020034A506820F44040CD
:100C700008435060704700000010024029B1064A46
:100C8000D2690243044BDA6104E0034AD269824329
:100C9000014BDA61704700000010024029B1064A9A
:100CA00012690243044B1A6104E0034A1269824349
:100CB000014B1A61704700000010024029B1064A3A
:100CC00092690243044B9A6104E0034A92698243A9
:100CD000014B9A61704700000010024029B1064A9A
:100CE000D2680243044BDA6004E0034AD2688243CC
:100CF000014BDA60704700000010024008B5002088
:100D0000009000F035F8012000F0F4F81748006872
:100D100000F0020000900098022825D11020FFF773
:100D20006DFC0220FFF7A6FC002000F0D7F80020A1
:100D300000F00CF94FF4806000F0FCF84FF4601103
:100D4000002000F015F9012000F00CF900BF392057
:100D500000F09EF80028FAD0022000F017F900BF3A
:100D600000F0B4F80828FBD108BD000000100240D4
:100D70000F48006840F001000D49086008464068CF
:100D80000C4908400A494860084600680A4908407A
:100D9000074908600846006820F48020086008467B
:100DA000406820F4FE0048604FF41F0088607047E0
:100DB000001002400000FFF8FFFFF6FE30B50021F2
:100DC0000022002400232D4D6D6805F00C0121B197
:100DD000042905D0082923D105E0294D056022E02A
:100DE000274D05601FE0254D6D6805F47012234DF9
:100DF0006D6805F48034022505EB92421CB9214D43
:100E0000554305600BE01D4D6D6805F400351DB1BF
:100E10001C4D5543056002E0194D5543056002E045
:100E2000174D056000BF00BF144D6D6805F0F0015F
:100E30000909154D6B5C0568DD4045600F4D6D6817
:100E400005F4E061090A104D6B5C4568DD40856082
:100E50000A4D6D6805F46051C90A0B4D6B5C45681D
:100E6000DD40C560054D6D6805F44041890B074DB7
:100E70006B5CC568B5FBF3F5056130BD0010024041
:100E800000127A0000093D00000000201000002040
:100E900010B501460022002300204A11012A02D188
:100EA000094C236806E0022A02D1074C236A01E0BC
:100EB000054C636A01F01F02012494401C400CB1F0
:100EC000012000E0002010BD0010024002484068F0
:100ED00000F00C00704700000010024001460020A6
:100EE000034A506820F0F00008435060704700004B
:100EF00000100240014908607047000000004242B3
:100F000000210B4A11700A4A203A82F82010012869
:100F100002D0042808D103E00121054A117004E041
:100F20000521034A117000E000BF00BF70470000B8
:100F30002010024001460020034A506820F4E0607F
:100F40000843506070470000001002400146002036
:100F5000034A506820F4605040EAC1005060704776
:100F6000001002400149086670470000000042423C
:100F700002460020044B586820F47C1042EA01032A
:100F80001843014B58607047001002400146002092
:100F9000034A506820F00300084350607047000087
:100FA00000100240704710B500F002F810BD0000BC
:100FB0000CB50020019000903348006840F4803068
:100FC0003149086000BF3048006800F400300090EC
:100FD0000198401C0190009818B90198B0F5A06FD5
:100FE000F1D12948006800F4003010B101200090D0
:100FF00001E0002000900098012843D123480068B8
:1010000040F01000214908600846006820F0030005
:1010100008600846006840F0020008601A4840680E
:10102000194948600846406848600846406840F4EE
:10103000806048600846406820F47C10486008469C
:10104000406840F4E81048600846006840F080704E
:10105000086000BF0C48006800F000700028F9D05C
:101060000948406820F00300074948600846406886
:1010700040F00200486000BF0348406800F00C00E8
:101080000828F9D10CBD00000010024000200240E9
:101090007047000010B51348006840F00100114986
:1010A000086008464068104908400E4948600846F4
:1010B00000680E4908400B4908600846006820F4A3
:1010C000802008600846406820F4FE0048604FF425
:1010D0001F008860FFF767FF4FF000600449086059
:1010E00010BD0000001002400000FFF8FFFFF6FEF8
:1010F00008ED00E010B50121880700F08DFB002805
:1011000040D021480078401C1F49087008460078EC
:101110001E490978884231D100214FF0804000F00B
:101120007BFA00201849087000F0EAFE4FF40061D5
:101130001748FFF7F4FC4FF480511548FFF7EFFC18
:1011400014480078401C13490870012012490870A7
:10115000C1020F48FFF7E3FC1048007810490870FF
:1011600010480078104908700D4800780F49087041
:101170000D48007848700E48FFF7A7FA012188074C
:1011800000F047FA10BD00003000002032000020BF
:101190000008014031000020180000202800002035
:1011A0002E000020290000202F0000203400002005
:1011B0000090000810B50121D64800F02DFB002852
:1011C00070D0D548007801286DD1C102D348FFF70F
:1011D000A8FCD348007800F0080018B90020D149D5
:1011E000087002E00120CF490870CD48007800F077
:1011F000040018B90020CC49087002E00120CA4957
:101200000870C748007800F0020018B90020C749EC
:10121000087002E00120C5490870C148007800F05C
:10122000010018B90020C249087002E00120C0493D
:101230000870C048007800F0800018B90020BE494E
:10124000087002E00120BC490870BA48007800F03C
:10125000400018B90020B949087002E00120B749E0
:101260000870B448007800F0200018B90020B44994
:10127000087002E00120B2490870AE48007800F022
:10128000100018B90020AF49087002E00120AD49F4
:101290000870A848007800F0080028B90020AA4982
:1012A000087004E035E130E10120A7490870A14849
:1012B000007800F0040018B90020A449087002E08A
:1012C0000120A24908709B48007800F0020018B97C
:1012D00000209F49087002E001209D490870954850
:1012E000007800F0010018B900209A49087002E067
:1012F0000120984908708B48007850B14FF40041A4
:101300009548FFF70EFC4FF480419348FFF707FC28
:1013100009E04FF480419048FFF703FC4FF400418F
:101320008D48FFF7FCFB8048007850B14FF48051A6
:101330008948FFF7F6FB4FF400518748FFF7EFFBB2
:1013400009E04FF400518448FFF7EBFB4FF4805164
:101350008148FFF7E4FB7548007840B140216F48B1
:10136000FFF7DFFB80216D48FFF7D9FB07E0802105
:101370006A48FFF7D6FB40216848FFF7D0FB6C486E
:10138000007840B120216548FFF7CBFB102163486E
:10139000FFF7C5FB07E010216048FFF7C2FB2021E3
:1013A0005E48FFF7BCFB6448007850B14FF48041C1
:1013B0006A48FFF7B6FB4FF400416848FFF7AFFB00
:1013C00009E04FF400416548FFF7ABFB4FF4804163
:1013D0006248FFF7A4FB5948007850B14FF4005120
:1013E0005E48FFF79EFB4FF400715B48FFF797FBE9
:1013F00009E04FF400715848FFF793FB4FF4005198
:101400005648FFF78CFB4E48007850B14FF480618E
:101410005148FFF786FB4FF400614F48FFF77FFB11
:1014200009E04FF400614C48FFF77BFB4FF480610B
:101430004948FFF774FB4348007840B10221464811
:10144000FFF76FFB01214448FFF769FB07E001212B
:101450004148FFF766FB02213F48FFF760FB3A482F
:10146000007840B104212D48FFF75BFB08212B4891
:10147000FFF755FB07E008212848FFF752FB04213E
:101480002648FFF74CFB3148007840B10121234842
:10149000FFF747FB02212148FFF741FB07E002214C
:1014A0001E48FFF73EFB01211C48FFF738FB284888
:1014B000007848B14FF480712748FFF732FB802154
:1014C0002548FFF72CFB08E080212348FFF729FB84
:1014D0004FF480712048FFF722FB1E48007840B18E
:1014E00020211D48FFF71DFB40211B48FFF717FB7C
:1014F00007E040211848FFF714FB20211648FFF7AA
:101500000EFB0121164800F087F80121014800F088
:1015100080F810BD000400401800002000080140C1
:101520002E000020250000202400002023000020A1
:10153000220000202F000020210000202000002099
:101540001F0000201E0000201D0000201C000020A5
:101550001B0000201A000020000C01400010014078
:101560000008004010B50021074800F055F800F0D1
:10157000C7FC4FF400610548FFF7D1FA012102488A
:1015800000F047F810BD00000008004000080140CE
:101590003EB505460C46164800F04AF801210420E5
:1015A000FFF76CFB124800F051F9681F00EB800058
:1015B00004EB400080B2ADF804003F20ADF800001D
:1015C0000020ADF80600ADF802006946084800F0BA
:1015D00043F90121064800F019F801221146044898
:1015E00000F02BF90021024800F004F83EBD000095
:1015F0000008004021B1028842F08002028004E02D
:1016000002884FF67F731A4002807047CA430282F5
:101610007047CA430282704721B1028842F001023A
:10162000028004E002884FF6FE731A400280704781
:1016300010B504466848844208D10121C014FFF760
:101640004DFB0021E014FFF749FBC4E0B4F1804FEB
:1016500008D101210846FFF721FB00210120FFF7F7
:101660001DFBB8E05D48844208D101210220FFF74C
:1016700015FB00210220FFF711FBACE05848844223
:1016800008D101210420FFF709FB00210420FFF706
:1016900005FBA0E05348844208D101210820FFF750
:1016A000FDFA00210820FFF7F9FA94E04E48844241
:1016B00008D101211020FFF7F1FA00211020FFF7D7
:1016C000EDFA88E04948844208D101212020FFF743
:1016D000E5FA00212020FFF7E1FA7CE0444884424B
:1016E00008D101214014FFF7F9FA00216014FFF737
:1016F000F5FA70E03F48844209D10121C804FFF7A0
:10170000EDFA00214FF40020FFF7E8FA63E03A48D1
:10171000844209D101210805FFF7E0FA00214FF4C6
:101720008010FFF7DBFA56E03448844209D10121EA
:101730004805FFF7D3FA00214FF40010FFF7CEFA67
:1017400049E02F48844208D101214020FFF7A6FA42
:1017500000214020FFF7A2FA3DE02A48844208D148
:1017600001218020FFF79AFA00218020FFF796FAE6
:1017700031E02548844208D101218015FFF78EFA17
:101780000021A015FFF78AFA25E02048844209D1FC
:1017900001210804FFF7A2FA00214FF48030FFF77F
:1017A0009DFA18E01A48844209D101214804FFF744
:1017B00095FA00214FF40030FFF790FA0BE015483E
:1017C000844208D101218804FFF788FA00214FF4F0
:1017D0008020FFF783FA10BD002C01400004004078
:1017E00000080040000C00400010004000140040C1
:1017F00000340140004C01400050014000540140C1
:1018000000180040001C0040002000400040014043
:10181000004401400048014030B50246002000234A
:101820000024158A05EA0103958905EA010413B12C
:101830000CB1012000E0002030BD1AB183890B43B8
:10184000838102E083898B438381704701894FF64E
:10185000F872114001817047002202881D4B9842A6
:101860000ED01D4B98420BD0B0F1804F08D01B4BCF
:10187000984205D01A4B984202D01A4B984204D194
:101880004FF68F731A404B881A43174B984207D074
:10189000164B984204D04FF6FF431A40CB881A43A8
:1018A00002808B8883850B8803850A4B98420BD076
:1018B000094B984208D00E4B984205D00D4B9842E8
:1018C00002D00D4B984201D10B7A0386012383820B
:1018D00070470000002C014000340140000400402B
:1018E00000080040000C00400010004000140040C0
:1018F00000400140004401400048014010B540F262
:101900002551C94800F017FA002814D0C64800F045
:10191000CDFAC4B2C548007890B9C548047001201A
:10192000C2490870C2480078C2490978884203D188
:101930000120C149087075E10020BF49087071E1BC
:10194000BA480078012805D1BC4804700220B74984
:10195000087067E1B5480078022805D1B8480470DE
:101960000320B24908705DE1B0480078032805D132
:10197000B44804700420AD49087053E1AB480078C6
:101980000428D8D1E4B9AC480078C8B1AC48007894
:10199000C0F38300A9490870A9480178007861F371
:1019A0009F10A74908700120A74908700020A74987
:1019B0000870A7490870A74908709C49087096E00C
:1019C000112C10D19C48007868B100209E49087005
:1019D0009E49087001209E49087000209D490870AA
:1019E0009249087083E0332C0FD19348007860B19E
:1019F00001209549087000209449087094490870A6
:101A0000944908708949087071E0442C10D18A48C3
:101A1000007868B100208C49087001208B4908705B
:101A200000208B4908708B490870804908705EE07F
:101A3000552C06D18048007818B100207B490870E9
:101A400055E0AA2C1ED17C480078D8B17B4800789C
:101A500000F00F017A48007861F31F107849087090
:101A600076480078001175490870012076490870A1
:101A700000207649087076490870764908706B49ED
:101A8000087034E0BB2C10D16B48007868B100209E
:101A90006D4908706D4908706D49087001206D49E5
:101AA000087000206149087021E0EE2C10D16248D6
:101AB000007868B10020644908706449087064497E
:101AC00008700120634908700020584908700EE032
:101AD000DD2C09D15848007830B101205E490870EA
:101AE00000205249087002E0002050490870564812
:101AF0000078012802D100F077FA93E0534800788B
:101B0000012822D14B480078544908705448007885
:101B10005449087054480078544908704F48017877
:101B2000414800F0CEF94F4801783F4800F0C9F92C
:101B30004E4801783C4800F0C4F905213A4800F0CD
:101B4000C0F90020414908706CE041480078012844
:101B50001FD1384800784149087041480078414910
:101B600008704148007800F03F00404908703B4849
:101B700001782D4800F0A5F93C4801782A4800F08A
:101B8000A0F90521284800F09CF900203049087090
:101B900048E03048007801282AD1264800782F49AB
:101BA00008702F4800780007000E2F49097840EA96
:101BB00011102C4908702C48007800F00F002B49B8
:101BC000087026480178184800F07BF9254801780C
:101BD000154800F076F925480178134800F071F9AE
:101BE0000521114800F06DF900201A49087019E02C
:101BF00019480078012815D11D480088001217499E
:101C000008701B4800781749087014480178064886
:101C100000F057F913480178034800F052F900200A
:101C20000C49087010BD000000380140260000205B
:101C3000270000203700002033000020280000206B
:101C4000290000202A000020140000201500002098
:101C50001600002017000020190000202B00002093
:101C60002E0000202C0000202F0000202D0000203E
:101C70003A00002021B1828942F40052828104E0BE
:101C800082894DF6FF731A408281704700B585B096
:101C900001210420FFF712F801218803FFF70EF855
:101CA0004FF40070ADF8100018208DF813000320D9
:101CB0008DF8120004A91748FEF7A6FE4FF48060C5
:101CC000ADF8100048208DF8130004A91148FEF764
:101CD0009BFE4FF4E13000900020ADF80400ADF819
:101CE0000600ADF80800ADF80C000C20ADF80A00B5
:101CF0006946094800F06EF8FEF71AFF012240F22B
:101D00002551054800F041F801210348FFF7B2FFD3
:101D100005B000BD00080140003801400246002027
:101D2000B1F5007F00D100BF13880B400BB101203B
:101D300000E00020704770B5024600240023002513
:101D4000002040F66A16B14200D100BFC1F342152F
:101D500001F01F03012606FA03F3012D02D1968933
:101D6000334006E0022D02D1168A334001E0968A04
:101D700033400C12012606FA04F41688344013B1DD
:101D80000CB1012000E0002070BDF0B50346002436
:101D900000260025002040F66A17B94200D100BF96
:101DA0001846C1F3421401F01F06012707FA06F591
:101DB000012C01D10C3004E0022C01D1103000E0E4
:101DC00014301AB107682F43076002E00768AF4379
:101DD0000760F0BD2DE9F04786B005460E460024A9
:101DE000A24600BFA1460027B08900B100BF2F4620
:101DF0002C8A4CF6FF700440F08804432C82AC8996
:101E00004EF6F3100440B0883189084371890843C5
:101E10000443AC81AC8A4FF6FF400440B0890443D0
:101E2000AC8201A8FEF7CAFF1F48874202D1DDF845
:101E300010A001E0DDF80CA0A88900F4004040B13A
:101E40000AEBCA0000EB0A1031684900B0FBF1F858
:101E500007E00AEBCA0000EB0A1031688900B0FB0A
:101E6000F1F86420B8FBF0F004012009642101FBC3
:101E70001089A88900F4004040B1322000EBC9006D
:101E8000B0FBF1F000F00700044308E0322000EB63
:101E900009106421B0FBF1F000F00F0004432C8125
:101EA00006B0BDE8F0870000003801400146888890
:101EB000C0F308007047C1F308028280704700BF7A
:101EC000FEE770B504460D4629462046FFF7F3FFAE
:101ED00000BF80212046FFF721FF0028F9D070BD08
:101EE00002E008C8121F08C1002AFAD170477047E3
:101EF000002001E001C1121F002AFBD17047000041
:101F000010B54FF480413548FEF709FE4FF400410B
:101F10003248FEF704FE4FF400513048FEF7FFFD53
:101F20004FF480512D48FEF7FAFD80212C48FEF732
:101F3000F6FD40212A48FEF7F2FD10212848FEF761
:101F4000EEFD20212648FEF7EAFD4FF4004125482A
:101F5000FEF7E5FD4FF480412248FEF7E0FD4FF427
:101F600000711E48FEF7DBFD4FF400511D48FEF7DF
:101F7000D6FD4FF400611948FEF7D1FD4FF48061A2
:101F80001648FEF7CCFD01211448FEF7C8FD0221DA
:101F90001248FEF7C4FD08211148FEF7C0FD0421D8
:101FA0000F48FEF7BCFD02210D48FEF7B8FD0121E8
:101FB0000B48FEF7B4FD80210848FEF7B0FD4FF452
:101FC00080710648FEF7ABFD40210448FEF7A7FDEF
:101FD00020210248FEF7A3FD10BD0000000C0140C7
:101FE000000801400010014010B5A2480078012807
:101FF00074D1A148007800F0080018B900209F496A
:10200000087002E001209D4908709B48007800F0AC
:10201000040018B900209A49087002E0012098498C
:1020200008709548007800F0020018B90020954922
:10203000087002E00120934908708F48007800F092
:10204000010018B900209049087002E001208E4973
:1020500008708E48007800F0800018B900208C4984
:10206000087002E001208A4908708848007800F072
:10207000400018B900208749087002E00120854916
:1020800008708248007800F0200018B900208249CA
:10209000087002E00120804908707C48007800F058
:1020A000100018B900207D49087002E001207B492A
:1020B00008707648007800F0080018B900207849C8
:1020C000087002E00120764908707048007800F03E
:1020D000040020B900207349087003E0C6E0012025
:1020E000704908706948007800F0020018B90020B3
:1020F0006D49087002E001206B4908706348007860
:1021000000F0010018B900206849087002E00120C1
:10211000664908705948007828B14FF40041644876
:10212000FEF7FFFC04E04FF480416148FEF7F9FC44
:102130005348007828B14FF480515D48FEF7F1FC18
:1021400004E04FF400515A48FEF7EBFC4D4800788C
:1021500020B140215748FEF7E4FC03E080215548B8
:10216000FEF7DFFC4848007820B120215148FEF7F7
:10217000D8FC03E010214F48FEF7D3FC4448007818
:1021800028B14FF480414C48FEF7CBFC04E04FF4FB
:1021900000414948FEF7C5FC3E48007828B14FF49D
:1021A00000514548FEF7BDFC04E04FF40071404883
:1021B000FEF7B7FC3848007828B14FF480613C48FE
:1021C000FEF7AFFC04E04FF400613948FEF7A9FCCC
:1021D0003248007820B102213548FEF7A2FC03E026
:1021E00001213348FEF79DFC2D48007820B10421E1
:1021F0003048FEF796FC03E008212E48FEF791FCDC
:102200002848007820B101212A48FEF78AFC03E023
:1022100002212848FEF785FC2348007828B14FF4B6
:1022200080712348FEF77DFC03E080212048FEF703
:1022300078FC1E48007820B120211D48FEF771FC73
:1022400003E040211A48FEF76CFC4FF40061194886
:10225000FEF767FC4FF480511648FEF762FC01213F
:102260008807FFF7D9F900200249087000201349B8
:10227000087010BD18000020280000202500002054
:10228000240000202300002022000020290000203C
:1022900021000020200000201F0000201E00002040
:1022A0001D0000201C0000201B0000201A00002040
:1022B000000C014000080140001001401400002003
:1022C000002107E04FF4616100BF0A00A1F10103A2
:1022D00099B2FAD10200A0F1010398B2F2D170478D
:1022E00010B5002024490870FEF708FDFEF706FA35
:1022F000FEF7A6F8FFF7CAFCFDF776FF4FF4006182
:102300001E48FEF70CFC00201D4908701D4908708E
:102310001D4908701D49087001201D4908700020E2
:102320001C4908701C4908701C4908701C49087039
:102330000A201C4908701C491C48FEF78DF91A48F0
:1023400000781B490870184840781A490870002125
:102350001948FDF73EFF00211848FFF75DF92020DE
:1023600017490870052017490870174908700020A0
:102370001649087010BD0000370000200008014019
:102380001400002015000020160000201900002075
:10239000180000203100002026000020330000201B
:1023A000300000203200002034000020009000089F
:1023B0002E0000202F0000200024014000040040D7
:1023C000390000203C0000202A0000203E000020B0
:1023D000FFF786FF32E001211948FDF7FAFE4FF4BE
:1023E000FA60FFF76DFF174800781E2812D12020F1
:1023F000154908700846017814480078FFF7C8F8B6
:1024000010480078401C0F49087001211048FFF760
:1024100003F913E00B4800781E280FDD0B48007805
:102420000C490978884209D00A48007807490870A1
:102430000548017805480078FFF7AAF8CBE70000C7
:10244000002401403E000020390000203C00002014
:10245000000400402A00002078240008000000202A
:1024600040000000E01E0008B824000840000020E2
:1024700000040000F01E0008000000000102030438
:102480000102030406070809020406080000000010
:10249000000000000000000000000000000000003C
:1024A000000000000000000000000000000000002C
:0824B000000000000000000024
:04000005080000ED02
:00000001FF
