:020000040800F2
:1000000050040020010100086F090008670900087A
:100010006B090008B90100086B140008000000001B
:10002000000000000000000000000000ED0B0008D0
:10003000BD01000800000000610A0008D90C00089A
:100040001B0100081B0100081B0100081B01000820
:100050001B0100081B0100081B0100081B01000810
:100060001B0100081B0100081B0100081B01000800
:100070001B0100081B0100081B0100081B010008F0
:100080001B0100081B0100081B0100081B010008E0
:100090001B0100081B0100081B0100081B010008D0
:1000A0001B0100081B0100081B0100081B010008C0
:1000B0003D0D00081B0100081B0100081B01000882
:1000C0001B0100081B0100081B0100081B010008A0
:1000D0001B010008BD1000081B0100081B010008DF
:1000E000C10100081B0100081B010008DFF80CD04B
:1000F00000F018F800480047E51A000850040020F6
:100100000648804706480047FEE7FEE7FEE7FEE7B1
:10011000FEE7FEE7FEE7FEE7FEE7FEE7DD0C000890
:10012000ED000008064C074D06E0E06840F00103D2
:1001300094E8070098471034AC42F6D3FFF7DAFF93
:10014000FC1C00081C1D00080EB54FF0804000F09C
:100150004FFE0121084600F085FC4FF0804000F082
:1001600055FF2820ADF804000720ADF8000000205E
:10017000ADF80600ADF8020069464FF0804000F08F
:100180004BFF0121880700F021FE01221146900754
:1001900000F033FF00214FF0804000F00BFE0EBD59
:1001A000014908607047000088860D4201490860D7
:1001B0007047000000860D4200BFFEE77047000058
:1001C0001CB54FF4005000F05DF8002847D04FF404
:1001D0000050009000208DF8040010208DF80500DC
:1001E00000208DF80600684600F060F8642001F0F9
:1001F000FFFB01201A4908701A48007818B901203D
:100200001849087002E00020164908701548007867
:1002100048B900201449087014490870144908703E
:100220001449087008E0FF200F4908700F49087052
:100230000F4908700F4908704FF4005000900020DB
:100240008DF8040010208DF8050001208DF80600BF
:10025000684600F02BF84FF4005000F00DF81CBD7C
:10026000150000204D0000203F000020400000202D
:10027000440000204500002001490860704700004C
:1002800014040140014600200022074B1B6803EACA
:100290000102054B14331B680B4013B10AB1012056
:1002A00000E00020704700000004014000212349C5
:1002B0008279002A3AD00A46126803689A430B46AC
:1002C0001A600A1D126803689A430B1D1A600279AE
:1002D00011440A6803681A430A60184A083212680F
:1002E00003689A43154B08331A601A1D1268036895
:1002F0009A43124B0C331A604279102A0ED11A1FFE
:10030000126803681A430D4B08331A601A1D1268ED
:1003100003681A43094B0C331A600DE00749427910
:1003200011440A6803681A430A6005E0027911441F
:100330000A6803689A430A6070470000000401409D
:100340000EB50121052000F0ADFB00F011FB4FF4CC
:100350000050ADF8080004208DF80B0002A90B48EE
:1003600000F072FA0D21002000F04EFA4FF4005018
:10037000009000208DF8040010208DF80500012069
:100380008DF806006846FFF791FF0EBD000801409A
:100390000149C860704700000020024030B50446A3
:1003A00004254FF4302000F07DF80546042D17D1C8
:1003B0000C48006940F002000A490861084644619F
:1003C000006940F0400008614FF4302000F06AF806
:1003D00005460448006941F6FD710840014908617D
:1003E000284630BD0020024004200B49C96801F0B6
:1003F000010109B101200EE00749C96801F00401BB
:1004000009B1022007E00449C96801F0100109B1EF
:10041000032000E0042070470020024003480069E8
:1004200040F0800001490861704700000020024050
:1004300070B504460D460426F00200F033F8064677
:10044000042E11D10948006940F0010007490861F4
:100450002580F00200F026F806460448006941F6BF
:10046000FE71084001490861304670BD002002401D
:1004700010B5022203E010F8013B01F8013B130024
:10048000A2F10104E2B2F6D110BD00000248034916
:1004900048600348486070472301674500200240D8
:1004A000AB89EFCD00B502460423FFF79DFF03465D
:1004B00003E0FFF799FF0346521E012B01D1002AEA
:1004C000F7D102B90523184600BD70B506460C46A3
:1004D000FFF7DCFF3520FFF75BFF3046FFF75EFFDD
:1004E00014F8015B14F8011B45EA01252946304642
:1004F000FFF79EFFFFF792FF70BD000008B50121D6
:10050000042000F0CFFA0121082000F0CBFA0121ED
:10051000102000F0C7FA0121084600F0C3FA0120BC
:10052000ADF8000010208DF8030003208DF80200C4
:100530006946B24800F088F90220ADF800001020AA
:100540008DF8030003208DF802006946AB4800F0E7
:100550007BF90420ADF8000010208DF80300032083
:100560008DF802006946A54800F06EF90820ADF844
:10057000000010208DF8030003208DF8020069466A
:100580009E4800F061F91020ADF800008DF80300DE
:1005900003208DF802006946984800F055F92020A4
:1005A000ADF8000010208DF8030003208DF8020044
:1005B0006946924800F048F94020ADF8000010204C
:1005C0008DF8030003208DF8020069468B4800F087
:1005D0003BF98020ADF8000010208DF803000320C7
:1005E0008DF802006946854800F02EF90120ADF82B
:1005F000000010208DF8030003208DF802006946EA
:100600007F4800F021F90220ADF8000010208DF89D
:10061000030003208DF802006946794800F014F9C0
:100620004FF48060ADF8000010208DF80300032027
:100630008DF802006946724800F006F94FF4006038
:10064000ADF8000010208DF8030003208DF80200A3
:1006500069466B4800F0F8F82020ADF80000102043
:100660008DF8030003208DF802006946644800F00D
:10067000EBF84020ADF8000010208DF803000320B7
:100680008DF8020069465E4800F0DEF88020ADF883
:10069000000010208DF8030003208DF80200694649
:1006A000574800F0D1F84FF48070ADF800001020EA
:1006B0008DF8030003208DF802006946504800F0D1
:1006C000C3F84FF48050ADF8000010208DF80300FF
:1006D00003208DF802006946494800F0B5F84FF450
:1006E0000050ADF8000010208DF8030003208DF8B5
:1006F00002006946424800F0A7F84FF48040ADF888
:10070000000010208DF8030003208DF802006946D8
:100710003B4800F099F84FF40040ADF8000010207D
:100720008DF8030003208DF802006946344800F07C
:100730008BF84FF40070ADF8000010208DF8030026
:1007400003208DF8020069462D4800F07DF84FF433
:100750000050ADF8000010208DF8030002208DF845
:1007600002006946274800F06FF84FF48040ADF86A
:10077000000010208DF8030002208DF80200694669
:10078000204800F061F84FF40040ADF80000102060
:100790008DF8030002208DF802006946194800F028
:1007A00053F8012000F056F9002000F005FA00206F
:1007B000FFF7FCFC0020FFF7F3FC002000F04AF9F3
:1007C0004FF40060ADF8000010208DF80300032006
:1007D0008DF802006946094800F036F84FF4805061
:1007E000ADF8000010208DF8030003208DF8020002
:1007F0006946024800F028F808BD000000080140E2
:10080000000C01400010014030B500228B071C0F86
:100810000F2303FA04F20B4B8C1053F8243093434C
:10082000084C8D1044F8253023468C1053F82430A2
:100830008C07240F00FA04F42343024C8D1044F873
:10084000253030BD080001402DE9F0410246002569
:100850000026002000230024002791F803C00CF09C
:100860000F0591F803C00CF0100CBCF1000F03D081
:1008700091F802C04CEA050591F800C0BCF1000FE8
:1008800031D0146800202BE04FF0010C0CFA00F37B
:10089000B1F800C00CEA03069E4220D183004FF05D
:1008A0000F0C0CFA03F7BC4305FA03FC4CEA0404F2
:1008B00091F803C0BCF1280F06D14FF0010C0CFADF
:1008C00000FCC2F814C00AE091F803C0BCF1480F64
:1008D00005D14FF0010C0CFA00FCC2F810C0401C0E
:1008E0000828D1D31460B1F800C0BCF1FF0F34DD8B
:1008F000546800202EE000F1080C4FF0010808FABF
:100900000CF3B1F800C00CEA03069E4221D183002B
:100910004FF00F0C0CFA03F7BC4305FA03FC4CEA4A
:10092000040491F803C0BCF1280F05D100F1080CB4
:1009300008FA0CF8C2F8148091F803C0BCF1480F13
:1009400007D100F1080C4FF0010808FA0CF8C2F8C2
:100950001080401C0828CED35460BDE8F08141616E
:1009600070470161704700BFFEE700BFFEE77047B8
:1009700008B54FF4A06000F063F825208DF8000062
:1009800001208DF8010000208DF8020001208DF873
:100990000300684600F01CF81C208DF800000020C1
:1009A0008DF801008DF8020001208DF803006846E3
:1009B00000F00EF828208DF8000001208DF80100CD
:1009C0008DF802008DF80300684600F001F808BDBC
:1009D00070B5002100230F22C47804B3154C24689D
:1009E00004F4E064C4F5E064210AC1F10403CA40E0
:1009F000447804FA03F184781440214309010E4C31
:100A00000678A155047804F01F050124AC40057850
:100A10006D11AD0005F1E025C5F8004109E004784D
:100A200004F01F050124AC40044D0678761145F80A
:100A3000264070BD0CED00E000E400E080E100E045
:100A400002490143024A1160704700000000FA05A4
:100A50000CED00E0014908627047000000000E4202
:100A60007047000029B1064AD2690243044BDA619B
:100A700004E0034AD2698243014BDA617047000007
:100A80000010024029B1064A12690243044B1A6160
:100A900004E0034A12698243014B1A617047000067
:100AA0000010024029B1064A92690243044B9A6140
:100AB00004E0034A92698243014B9A617047000047
:100AC0000010024029B1064AD2680243044BDA60A2
:100AD00004E0034AD2688243014BDA6070470000A9
:100AE0000010024030B500210022002400232D4DCB
:100AF0006D6805F00C0121B1042905D0082923D126
:100B000005E0294D056022E0274D05601FE0254DD9
:100B10006D6805F47012234D6D6805F4803402256C
:100B200005EB92421CB9214D554305600BE01D4D6C
:100B30006D6805F400351DB11C4D5543056002E09C
:100B4000194D5543056002E0174D056000BF00BF19
:100B5000144D6D6805F0F0010909154D6B5C0568D1
:100B6000DD4045600F4D6D6805F4E061090A104DE8
:100B70006B5C4568DD4085600A4D6D6805F4605129
:100B8000C90A0B4D6B5C4568DD40C560054D6D685D
:100B900005F44041890B074D6B5CC568B5FBF3F567
:100BA000056130BD0010024000127A0000093D00CE
:100BB000000000201000002000210B4A11700A4A9A
:100BC000203A82F82010012802D0042808D103E03E
:100BD0000121054A117004E00521034A117000E06B
:100BE00000BF00BF7047000020100240704710B5E2
:100BF00000F002F810BD00000CB50020019000903C
:100C00003348006840F480303149086000BF304804
:100C1000006800F4003000900198401C019000989A
:100C200018B90198B0F5A06FF1D12948006800F417
:100C3000003010B10120009001E0002000900098E9
:100C4000012843D12348006840F010002149086082
:100C50000846006820F0030008600846006840F07D
:100C6000020008601A484068194948600846406810
:100C700048600846406840F4806048600846406824
:100C800020F47C1048600846406840F4E810486052
:100C90000846006840F08070086000BF0C4800689B
:100CA00000F000700028F9D00948406820F00300E7
:100CB000074948600846406840F00200486000BFAD
:100CC0000348406800F00C000828F9D10CBD000072
:100CD00000100240002002407047000010B5134889
:100CE000006840F00100114908600846406810495A
:100CF00008400E494860084600680E4908400B4904
:100D000008600846006820F48020086008464068B3
:100D100020F4FE0048604FF41F008860FFF767FF73
:100D20004FF000600449086010BD00000010024050
:100D30000000FFF8FFFFF6FE08ED00E010B501210E
:100D4000880700F049F948B315480078401C144959
:100D50000870084600781349097888421AD10021A2
:100D60004FF0804000F038F800200D49087000F086
:100D700037FF4FF480510C48FFF7F1FD0B48007826
:100D8000401C0A490870012009490870C102064840
:100D9000FFF7E5FD0121880700F01BF810BD0000FA
:100DA00046000020480000200008014047000020C5
:100DB0001800002021B1028842F08002028004E085
:100DC00002884FF67F731A4002807047CA4302823E
:100DD0007047CA430282704721B1028842F0010283
:100DE000028004E002884FF6FE731A4002807047CA
:100DF00010B504466848844208D10121C014FFF7A9
:100E000061FE0021E014FFF75DFEC4E0B4F1804F05
:100E100008D101210846FFF735FE00210120FFF728
:100E200031FEB8E05D48844208D101210220FFF77D
:100E300029FE00210220FFF725FEACE0584884423D
:100E400008D101210420FFF71DFE00210420FFF737
:100E500019FEA0E05348844208D101210820FFF781
:100E600011FE00210820FFF70DFE94E04E48844259
:100E700008D101211020FFF705FE00211020FFF707
:100E800001FE88E04948844208D101212020FFF773
:100E9000F9FD00212020FFF7F5FD7CE04448844265
:100EA00008D101214014FFF70DFE00216014FFF767
:100EB00009FE70E03F48844209D10121C804FFF7D0
:100EC00001FE00214FF40020FFF7FCFD63E03A48EB
:100ED000844209D101210805FFF7F4FD00214FF4F8
:100EE0008010FFF7EFFD56E03448844209D101211C
:100EF0004805FFF7E7FD00214FF40010FFF7E2FD82
:100F000049E02F48844208D101214020FFF7BAFD73
:100F100000214020FFF7B6FD3DE02A48844208D179
:100F200001218020FFF7AEFD00218020FFF7AAFD00
:100F300031E02548844208D101218015FFF7A2FD48
:100F40000021A015FFF79EFD25E02048844209D12D
:100F500001210804FFF7B6FD00214FF48030FFF7B0
:100F6000B1FD18E01A48844209D101214804FFF775
:100F7000A9FD00214FF40030FFF7A4FD0BE0154858
:100F8000844208D101218804FFF79CFD00214FF421
:100F90008020FFF797FD10BD002C014000040040A9
:100FA00000080040000C0040001000400014004009
:100FB00000340140004C0140005001400054014009
:100FC00000180040001C004000200040004001408C
:100FD000004401400048014030B502460020002393
:100FE0000024158A05EA0103958905EA010413B175
:100FF0000CB1012000E0002030BD1AB183890B4301
:10100000838102E083898B438381704701894FF696
:10101000F872114001817047002202881D4B9842EE
:101020000ED01D4B98420BD0B0F1804F08D01B4B17
:10103000984205D01A4B984202D01A4B984204D1DC
:101040004FF68F731A404B881A43174B984207D0BC
:10105000164B984204D04FF6FF431A40CB881A43F0
:1010600002808B8883850B8803850A4B98420BD0BE
:10107000094B984208D00E4B984205D00D4B984230
:1010800002D00D4B984201D10B7A03860123838253
:1010900070470000002C0140003401400004004073
:1010A00000080040000C0040001000400014004008
:1010B00000400140004401400048014010B540F2AA
:1010C00025514A4800F00DF9002811D0474800F09A
:1010D000C3F9C4B24648007878B946480470012084
:1010E000434908704348007818B901204249087004
:1010F0007BE000204049087077E03D4800780128F7
:1011000005D13E4804700220394908706DE0384826
:101110000078022805D13A48047003203449087049
:1011200063E033480078032805D136480470042072
:101130002F49087059E02E480078042855D1552CC5
:101140000FD12D48007860B101202F490870002090
:101150002E4908702E4908702E49087024490870DD
:1011600043E0AA2C18D124480078A8B100202649D1
:10117000087001202549087000202549087025497C
:1011800008701B4908701D480078234908701C48E6
:1011900000782249087028E0BB2C10D1164800784E
:1011A00068B10020184908701849087001201849D2
:1011B00008700020174908700D49087015E0EE2CE2
:1011C00010D10D48007868B100200F4908700F4910
:1011D00008700F49087001200E490870002004496A
:1011E000087002E000200249087010BD003801407C
:1011F0003D0000203E000020490000203F0000206C
:1012000040000020480000201400002015000020AD
:101210001600002017000020440000204500002098
:1012200021B1828942F40052828104E082894DF624
:10123000FF731A408281704700B585B001210420F8
:10124000FFF730FC01218803FFF72CFC4FF40070FE
:10125000ADF8100018208DF8130003208DF812004F
:1012600004A91748FFF7F0FA4FF48060ADF81000BA
:1012700048208DF8130004A91148FFF7E5FA4FF450
:10128000E13000900020ADF80400ADF80600ADF8A4
:101290000800ADF80C000C20ADF80A0069460948BA
:1012A00000F06EF8FFF764FB012240F2255105487B
:1012B00000F041F801210348FFF7B2FF05B000BD7F
:1012C000000801400038014002460020B1F5007FCF
:1012D00000D100BF13880B400BB1012000E00020BB
:1012E000704770B50246002400230025002040F618
:1012F0006A16B14200D100BFC1F3421501F01F03CD
:10130000012606FA03F3012D02D19689334006E047
:10131000022D02D1168A334001E0968A33400C1226
:10132000012606FA04F41688344013B10CB10120EA
:1013300000E0002070BDF0B5034600240026002523
:10134000002040F66A17B94200D100BF1846C1F329
:10135000421401F01F06012707FA06F5012C01D1FE
:101360000C3004E0022C01D1103000E014301AB12E
:1013700007682F43076002E00768AF430760F0BDCE
:101380002DE9F04786B005460E460024A24600BF70
:10139000A1460027B08900B100BF2F462C8A4CF629
:1013A000FF700440F08804432C82AC894EF6F310A1
:1013B0000440B08831890843718908430443AC81F3
:1013C000AC8A4FF6FF400440B0890443AC8201A8C8
:1013D000FFF788FB1F48874202D1DDF810A001E02B
:1013E000DDF80CA0A88900F4004040B10AEBCA0067
:1013F00000EB0A1031684900B0FBF1F807E00AEB96
:10140000CA0000EB0A1031688900B0FBF1F86420D3
:10141000B8FBF0F004012009642101FB1089A889C0
:1014200000F4004040B1322000EBC900B0FBF1F005
:1014300000F00700044308E0322000EB09106421AB
:10144000B0FBF1F000F00F0004432C8106B0BDE8C2
:10145000F08700000038014001468888C0F308008A
:101460007047C1F308028280704700BFFEE770B585
:1014700004460D4629462046FFF7F3FF00BF8021B2
:101480002046FFF721FF0028F9D070BD02E008C810
:10149000121F08C1002AFAD170477047002001E0EE
:1014A00001C1121F002AFBD17047000010B5FE4891
:1014B0000078012874D1FD48007800F0800018B948
:1014C0000020FB49087002E00120F9490870F74844
:1014D000007800F0400018B90020F649087002E0DA
:1014E0000120F4490870F148007800F0200018B994
:1014F0000020F149087002E00120EF490870EB4834
:10150000007800F0100018B90020EC49087002E0E3
:101510000120EA490870E548007800F0080018B991
:101520000020E749087002E00120E5490870DF4823
:10153000007800F0040018B90020E249087002E0C9
:101540000120E0490870D948007800F0020018B97D
:101550000020DD49087002E00120DB490870D34813
:10156000007800F0010018B90020D849087002E0A6
:101570000120D6490870D648007800F0080018B954
:101580000020D449087002E00120D2490870D048F8
:10159000007800F0040020B90020CF49087003E073
:1015A00012E20120CC490870C948007800F002001E
:1015B00018B90020C949087002E00120C749087025
:1015C000C348007800F0010018B90020C449087031
:1015D00002E00120C2490870B548007880B14FF49C
:1015E0000041C048FFF7BDF94FF48041BD48FFF707
:1015F000B6F90120BC4908700020BC4908700FE012
:101600004FF40041B748FFF7AAF94FF48041B548BD
:10161000FFF7A7F90020B44908700120B34908700A
:10162000A448007880B14FF40051AE48FFF799F913
:101630004FF40071AE48FFF792F90120AD490870F0
:101640000020AD4908700FE04FF40051A548FFF7A6
:1016500086F94FF40071A648FFF783F90020A549E9
:1016600008700120A44908709348007880B14FF4B5
:1016700000419F48FFF775F94FF480419C48FFF700
:101680006EF901209D49087000209D4908700FE007
:101690004FF400419648FFF762F94FF480419448B7
:1016A000FFF75FF900209549087001209449087000
:1016B0008248007880B14FF400518D48FFF751F90E
:1016C0004FF480518A48FFF74AF901208D4908708C
:1016D00000208D4908700FE04FF400518448FFF757
:1016E0003EF94FF480518248FFF73BF900208549CD
:1016F00008700120844908707148007878B14FF46F
:1017000080717B48FFF72DF980217948FFF727F991
:1017100001207E49087000207D4908700EE04FF4DA
:1017200080717348FFF71BF980217148FFF719F9A1
:1017300000207649087001207549087061480078DA
:1017400070B140216A48FFF70CF920216848FFF783
:1017500006F901206F49087000206F4908700DE0FC
:1017600040216348FFF7FBF820216148FFF7F9F8B3
:1017700000206849087001206749087052480078C5
:1017800080B14FF400615A48FFF7EBF84FF48061E5
:101790005748FFF7E4F801206049087000206049CD
:1017A00008700FE04FF400615148FFF7D8F84FF48C
:1017B00080614F48FFF7D5F8002058490870012094
:1017C000574908704148007870B102214848FFF736
:1017D000C8F801214648FFF7C2F8012051490870B6
:1017E0000020514908700DE002214148FFF7B7F889
:1017F00001213F48FFF7B5F800204A490870012051
:10180000494908703348007870B180214748FFF794
:10181000A8F840214548FFF7A2F801204449087084
:101820000020444908700DE080214048FFF797F8F8
:1018300040213E48FFF795F800203D4908700120FF
:101840003C4908702448007870B120213748FFF7E0
:1018500088F810213548FFF782F8012036490870D2
:101860000020364908700DE020213048FFF777F856
:1018700010212E48FFF775F800202F49087001202D
:101880002E4908701548007860B108212748FFF7F5
:1018900068F804212548FFF762F8012028490870FC
:1018A00000204FE051E00000180000203F00002021
:1018B0003C0000203B0000203A00002039000020BE
:1018C00038000020370000203600002035000020BE
:1018D00040000020340000203300002032000020AF
:1018E00031000020001001403000002024000020C2
:1018F000000C01402F000020230000202E000020BB
:10190000220000202D000020210000202C000020BB
:10191000200000202B0000201F0000202A000020B3
:101920001E000020290000201D00002000080140AA
:10193000280000201C000020270000201B000020A1
:1019400026000020224908700DE008212148FFF7F9
:1019500006F804211F48FFF704F800201E4908700C
:1019600001201B4908701D48007870B102211948F8
:10197000FEF7F7FF01211748FEF7F1FF0120184994
:1019800008700020174908700DE002211148FEF789
:10199000E6FF01210F48FEF7E4FF00201049087020
:1019A0000120104908704FF400610A48FEF7D9FF82
:1019B00001218807FFF710FA00200B4908704FF447
:1019C00080510448FEF7CDFF00200849087010BD83
:1019D0001A000020000801402600002031000020ED
:1019E000250000201900002018000020150000200C
:1019F000002107E04FF47A7100BF0A00A1F1010352
:101A000099B2FAD10200A0F1010398B2F2D1704765
:101A100010B5FEF773FDFEF797FBFFF70DFCFEF721
:101A20008FFC4FF400611D48FEF799FF4FF4805181
:101A30001A48FEF794FF00201949087019490870E8
:101A400019490870194908700120194908700020C7
:101A50001849087018490870184908701849087022
:101A600008201849087018491848FEF701FD164863
:101A70000078174908701448407816490870FFF735
:101A800015FD13480078144908701248007813496E
:101A9000087000201249087010BD000000080140C5
:101AA0001500002014000020160000201700002060
:101AB00018000020470000203D00002049000020C1
:101AC00046000020480000204A0000200080000856
:101AD0003F0000204000002044000020450000207E
:101AE0004D000020FFF794FF5EE0304800780128A9
:101AF00002D1FFF7DBFC57E02D480078012802D126
:101B000000F0E2F850E02B480078012822D10020B4
:101B1000294908702948007829490870294800781F
:101B200029490870244801782848FFF7A0FC244878
:101B300001782648FFF79BFC234801782348FFF7EC
:101B400096FC234801782148FFF791FC00201949B1
:101B5000087029E01F480078012825D10020164987
:101B600008701D491D48FEF783FC1B480078144986
:101B7000087019484078144908700F4801781348D4
:101B8000FFF775FC0E4801781048FFF770FC0E480F
:101B900001780E48FFF76BFC0D4801780B48FFF702
:101BA00066FC00200B4908709FE70000150000202C
:101BB00014000020160000204100002044000020F6
:101BC0004200002045000020430000200038014072
:101BD00047000020170000204A0000200080000875
:101BE00010B501213548FEF7BCFE04213348FEF74D
:101BF000B8FE10213148FEF7B4FE40212F48FEF711
:101C0000B0FE01212E48FEF7ACFE4FF480612C4857
:101C1000FEF7A7FE20212A48FEF7A3FE80212848D0
:101C2000FEF79FFE4FF480512548FEF79AFE4FF4D1
:101C300080412348FEF795FE4FF400712048FEF7DF
:101C400090FE4FF480411F48FEF78BFE02211B4897
:101C5000FEF787FE08211948FEF783FE202117486A
:101C6000FEF77FFE80211548FEF77BFE0221144817
:101C7000FEF777FE4FF400611148FEF772FE402137
:101C80000F48FEF76EFE4FF480710D48FEF769FEB7
:101C90004FF400510A48FEF764FE4FF40041084833
:101CA000FEF75FFE4FF400510648FEF75AFE4FF470
:101CB00000410448FEF755FE10BD00000008014039
:101CC000000C01400010014010B50748007807499A
:101CD00008700748007848700648FEF7F6FB0020B9
:101CE0000549087010BD00003F0000204A00002098
:101CF0004000002000800008140000201C1D000887
:101D000000000020500000008C1400086C1D00082A
:101D100050000020000400009C1400080000000097
:101D2000010203040102030406070809020406086D
:101D300000000000000000000000000000000000A3
:101D40000000000000000000000000000000000093
:101D50000000000000000000000000000000000083
:0C1D600000000000000000000000000077
:04000005080000ED02
:00000001FF
